{"project/contracts/PropertyEscrow.sol":{"PropertyEscrow":{"abi":[{"inputs":[{"internalType":"address","name":"_titleDeedContract","type":"address"},{"internalType":"address","name":"_sharesContract","type":"address"},{"internalType":"address","name":"_paymentSplitterContract","type":"address"}],"stateMutability":"nonpayable","type":"constructor"},{"inputs":[{"internalType":"address","name":"owner","type":"address"}],"name":"OwnableInvalidOwner","type":"error"},{"inputs":[{"internalType":"address","name":"account","type":"address"}],"name":"OwnableUnauthorizedAccount","type":"error"},{"inputs":[],"name":"ReentrancyGuardReentrantCall","type":"error"},{"anonymous":false,"inputs":[{"indexed":true,"internalType":"bytes32","name":"escrowId","type":"bytes32"},{"indexed":true,"internalType":"string","name":"propertyId","type":"string"},{"indexed":true,"internalType":"address","name":"buyer","type":"address"}],"name":"EscrowCancelled","type":"event"},{"anonymous":false,"inputs":[{"indexed":true,"internalType":"bytes32","name":"escrowId","type":"bytes32"},{"indexed":true,"internalType":"string","name":"propertyId","type":"string"},{"indexed":true,"internalType":"address","name":"buyer","type":"address"},{"indexed":false,"internalType":"uint256","name":"totalAmount","type":"uint256"}],"name":"EscrowCompleted","type":"event"},{"anonymous":false,"inputs":[{"indexed":true,"internalType":"bytes32","name":"escrowId","type":"bytes32"},{"indexed":true,"internalType":"string","name":"propertyId","type":"string"},{"indexed":true,"internalType":"address","name":"buyer","type":"address"},{"indexed":false,"internalType":"address","name":"seller","type":"address"},{"indexed":false,"internalType":"uint256","name":"totalAmount","type":"uint256"},{"indexed":false,"internalType":"uint256","name":"sharesAmount","type":"uint256"},{"indexed":false,"internalType":"uint256","name":"deadline","type":"uint256"}],"name":"EscrowCreated","type":"event"},{"anonymous":false,"inputs":[{"indexed":true,"internalType":"address","name":"previousOwner","type":"address"},{"indexed":true,"internalType":"address","name":"newOwner","type":"address"}],"name":"OwnershipTransferred","type":"event"},{"anonymous":false,"inputs":[{"indexed":true,"internalType":"bytes32","name":"escrowId","type":"bytes32"},{"indexed":true,"internalType":"string","name":"propertyId","type":"string"},{"indexed":false,"internalType":"string","name":"paymentReference","type":"string"}],"name":"PaymentConfirmed","type":"event"},{"inputs":[{"internalType":"bytes32","name":"escrowId","type":"bytes32"}],"name":"cancelEscrow","outputs":[],"stateMutability":"nonpayable","type":"function"},{"inputs":[{"internalType":"bytes32","name":"escrowId","type":"bytes32"}],"name":"confirmPaymentAndCompleteEscrow","outputs":[],"stateMutability":"nonpayable","type":"function"},{"inputs":[{"internalType":"string","name":"propertyId","type":"string"},{"internalType":"address","name":"buyer","type":"address"},{"internalType":"uint256","name":"sharesAmount","type":"uint256"},{"internalType":"uint256","name":"deadline","type":"uint256"},{"internalType":"string","name":"paymentReference","type":"string"}],"name":"createEscrow","outputs":[{"internalType":"bytes32","name":"","type":"bytes32"}],"stateMutability":"nonpayable","type":"function"},{"inputs":[{"internalType":"string","name":"propertyId","type":"string"}],"name":"distributePayment","outputs":[],"stateMutability":"payable","type":"function"},{"inputs":[],"name":"emergencyWithdraw","outputs":[],"stateMutability":"nonpayable","type":"function"},{"inputs":[{"internalType":"bytes32","name":"","type":"bytes32"}],"name":"escrows","outputs":[{"internalType":"string","name":"propertyId","type":"string"},{"internalType":"address","name":"buyer","type":"address"},{"internalType":"address","name":"seller","type":"address"},{"internalType":"uint256","name":"totalAmount","type":"uint256"},{"internalType":"uint256","name":"sharesAmount","type":"uint256"},{"internalType":"uint256","name":"createdAt","type":"uint256"},{"internalType":"uint256","name":"deadline","type":"uint256"},{"internalType":"bool","name":"isActive","type":"bool"},{"internalType":"bool","name":"isCompleted","type":"bool"},{"internalType":"string","name":"paymentReference","type":"string"}],"stateMutability":"view","type":"function"},{"inputs":[{"internalType":"string","name":"propertyId","type":"string"}],"name":"getActiveEscrow","outputs":[{"internalType":"bytes32","name":"","type":"bytes32"}],"stateMutability":"view","type":"function"},{"inputs":[{"internalType":"bytes32","name":"escrowId","type":"bytes32"}],"name":"getEscrowInfo","outputs":[{"components":[{"internalType":"string","name":"propertyId","type":"string"},{"internalType":"address","name":"buyer","type":"address"},{"internalType":"address","name":"seller","type":"address"},{"internalType":"uint256","name":"totalAmount","type":"uint256"},{"internalType":"uint256","name":"sharesAmount","type":"uint256"},{"internalType":"uint256","name":"createdAt","type":"uint256"},{"internalType":"uint256","name":"deadline","type":"uint256"},{"internalType":"bool","name":"isActive","type":"bool"},{"internalType":"bool","name":"isCompleted","type":"bool"},{"internalType":"string","name":"paymentReference","type":"string"}],"internalType":"struct PropertyEscrow.EscrowInfo","name":"","type":"tuple"}],"stateMutability":"view","type":"function"},{"inputs":[{"internalType":"bytes32","name":"escrowId","type":"bytes32"}],"name":"getEscrowStatus","outputs":[{"internalType":"bool","name":"isActive","type":"bool"},{"internalType":"bool","name":"isCompleted","type":"bool"},{"internalType":"uint256","name":"deadline","type":"uint256"}],"stateMutability":"view","type":"function"},{"inputs":[{"internalType":"string","name":"propertyId","type":"string"}],"name":"hasActiveEscrow","outputs":[{"internalType":"bool","name":"","type":"bool"}],"stateMutability":"view","type":"function"},{"inputs":[],"name":"owner","outputs":[{"internalType":"address","name":"","type":"address"}],"stateMutability":"view","type":"function"},{"inputs":[],"name":"paymentSplitterContract","outputs":[{"internalType":"contract PropertyPaymentSplitter","name":"","type":"address"}],"stateMutability":"view","type":"function"},{"inputs":[{"internalType":"string","name":"","type":"string"}],"name":"propertyEscrows","outputs":[{"internalType":"bytes32","name":"","type":"bytes32"}],"stateMutability":"view","type":"function"},{"inputs":[{"internalType":"string","name":"propertyId","type":"string"},{"internalType":"string","name":"location","type":"string"},{"internalType":"uint256","name":"totalValue","type":"uint256"},{"internalType":"uint256","name":"totalShares","type":"uint256"},{"internalType":"uint256","name":"sharePrice","type":"uint256"},{"internalType":"string","name":"tokenURI","type":"string"},{"internalType":"address[]","name":"stakeholders","type":"address[]"},{"internalType":"uint256[]","name":"percentages","type":"uint256[]"},{"internalType":"string[]","name":"roles","type":"string[]"},{"internalType":"address","name":"initialOwner","type":"address"}],"name":"registerProperty","outputs":[],"stateMutability":"nonpayable","type":"function"},{"inputs":[],"name":"renounceOwnership","outputs":[],"stateMutability":"nonpayable","type":"function"},{"inputs":[],"name":"sharesContract","outputs":[{"internalType":"contract PropertyShares","name":"","type":"address"}],"stateMutability":"view","type":"function"},{"inputs":[],"name":"titleDeedContract","outputs":[{"internalType":"contract PropertyTitleDeed","name":"","type":"address"}],"stateMutability":"view","type":"function"},{"inputs":[{"internalType":"address","name":"newOwner","type":"address"}],"name":"transferOwnership","outputs":[],"stateMutability":"nonpayable","type":"function"},{"inputs":[{"internalType":"address","name":"_titleDeedContract","type":"address"},{"internalType":"address","name":"_sharesContract","type":"address"},{"internalType":"address","name":"_paymentSplitterContract","type":"address"}],"name":"updateContracts","outputs":[],"stateMutability":"nonpayable","type":"function"},{"inputs":[{"internalType":"bytes32","name":"escrowId","type":"bytes32"},{"internalType":"string","name":"paymentReference","type":"string"}],"name":"updatePaymentReference","outputs":[],"stateMutability":"nonpayable","type":"function"}],"evm":{"bytecode":{"linkReferences":{},"object":"608060405234801562000010575f80fd5b506040516200266f3803806200266f833981016040819052620000339162000117565b33806200005957604051631e4fbdf760e01b81525f600482015260240160405180910390fd5b6200006481620000ac565b5060018055600280546001600160a01b039485166001600160a01b0319918216179091556003805493851693821693909317909255600480549190931691161790556200015e565b5f80546001600160a01b038381166001600160a01b0319831681178455604051919092169283917f8be0079c531659141344cd1fd0a4f28419497f9722a3daafe3b4186f6b6457e09190a35050565b80516001600160a01b038116811462000112575f80fd5b919050565b5f805f606084860312156200012a575f80fd5b6200013584620000fb565b92506200014560208501620000fb565b91506200015560408501620000fb565b90509250925092565b612503806200016c5f395ff3fe60806040526004361061011b575f3560e01c8063998b0a2d1161009d578063db2e21bc11610062578063db2e21bc1461036b578063ee5e3b811461037f578063f2fde38b1461039e578063fa49c5c3146103bd578063fa7cb3cc146103dc575f80fd5b8063998b0a2d146102a6578063abeab219146102c5578063afeb06ee146102d8578063bf1fbaee14610307578063cea040c414610326575f80fd5b8063715018a6116100e3578063715018a61461020c5780637bc1ed631461022057806388d7c0911461023f5780638da5cb5b1461025e5780639585e82d1461027a575f80fd5b806329642f411461011f5780632d83549c1461015b5780633f53bd77146101905780635356d0ca146101af5780636dca4d44146101eb575b5f80fd5b34801561012a575f80fd5b5060045461013e906001600160a01b031681565b6040516001600160a01b0390911681526020015b60405180910390f35b348015610166575f80fd5b5061017a610175366004611848565b6103fb565b6040516101529a999897969594939291906118ac565b34801561019b575f80fd5b5060025461013e906001600160a01b031681565b3480156101ba575f80fd5b506101ce6101c9366004611848565b61056d565b604080519315158452911515602084015290820152606001610152565b3480156101f6575f80fd5b5061020a61020536600461194d565b610735565b005b348015610217575f80fd5b5061020a61088d565b34801561022b575f80fd5b5060035461013e906001600160a01b031681565b34801561024a575f80fd5b5061020a610259366004611848565b6108a0565b348015610269575f80fd5b505f546001600160a01b031661013e565b348015610285575f80fd5b50610299610294366004611848565b610bec565b6040516101529190611995565b3480156102b1575f80fd5b5061020a6102c0366004611ca5565b610dfb565b61020a6102d3366004611dbf565b610f4f565b3480156102e3575f80fd5b506102f76102f2366004611dbf565b610fb1565b6040519015158152602001610152565b348015610312575f80fd5b5061020a610321366004611df9565b610ffb565b348015610331575f80fd5b5061035d610340366004611dbf565b805160208183018101805160068252928201919093012091525481565b604051908152602001610152565b348015610376575f80fd5b5061020a611096565b34801561038a575f80fd5b5061020a610399366004611848565b61111d565b3480156103a9575f80fd5b5061020a6103b8366004611e3d565b611253565b3480156103c8575f80fd5b5061035d6103d7366004611dbf565b611290565b3480156103e7575f80fd5b5061035d6103f6366004611e58565b6112b7565b60056020525f908152604090208054819061041590611ede565b80601f016020809104026020016040519081016040528092919081815260200182805461044190611ede565b801561048c5780601f106104635761010080835404028352916020019161048c565b820191905f5260205f20905b81548152906001019060200180831161046f57829003601f168201915b50505060018401546002850154600386015460048701546005880154600689015460078a015460088b0180549a9b6001600160a01b039889169b97909816995094975092959194909360ff8085169461010090041692916104ec90611ede565b80601f016020809104026020016040519081016040528092919081815260200182805461051890611ede565b80156105635780601f1061053a57610100808354040283529160200191610563565b820191905f5260205f20905b81548152906001019060200180831161054657829003601f168201915b505050505090508a565b5f818152600560205260408082208151610140810190925280548392839283928290829061059a90611ede565b80601f01602080910402602001604051908101604052809291908181526020018280546105c690611ede565b80156106115780601f106105e857610100808354040283529160200191610611565b820191905f5260205f20905b8154815290600101906020018083116105f457829003601f168201915b505050918352505060018201546001600160a01b03908116602083015260028301541660408201526003820154606082015260048201546080820152600582015460a0820152600682015460c0820152600782015460ff808216151560e084015261010091829004161515908201526008820180546101209092019161069690611ede565b80601f01602080910402602001604051908101604052809291908181526020018280546106c290611ede565b801561070d5780601f106106e45761010080835404028352916020019161070d565b820191905f5260205f20905b8154815290600101906020018083116106f057829003601f168201915b5050509190925250505060e081015161010082015160c0909201519097919650945092505050565b61073d6117cd565b6001600160a01b0383166107985760405162461bcd60e51b815260206004820152601b60248201527f496e76616c6964207469746c65206465656420636f6e7472616374000000000060448201526064015b60405180910390fd5b6001600160a01b0382166107ee5760405162461bcd60e51b815260206004820152601760248201527f496e76616c69642073686172657320636f6e7472616374000000000000000000604482015260640161078f565b6001600160a01b03811661084e5760405162461bcd60e51b815260206004820152602160248201527f496e76616c6964207061796d656e742073706c697474657220636f6e747261636044820152601d60fa1b606482015260840161078f565b600280546001600160a01b039485166001600160a01b031991821617909155600380549385169382169390931790925560048054919093169116179055565b6108956117cd565b61089e5f6117f9565b565b6108a86117cd565b5f818152600560205260409020600781015460ff166108d95760405162461bcd60e51b815260040161078f90611f16565b6007810154610100900460ff16156109335760405162461bcd60e51b815260206004820152601860248201527f457363726f7720616c726561647920636f6d706c657465640000000000000000604482015260640161078f565b80600601544211156109805760405162461bcd60e51b8152602060048201526016602482015275115cd8dc9bddc8191958591b1a5b99481c185cdcd95960521b604482015260640161078f565b60078101805461ffff1916610100179055600354600480830154604051631bcba7af60e11b81526001600160a01b03909316926337974f5e926109c7928692909101611fbd565b5f604051808303815f87803b1580156109de575f80fd5b505af11580156109f0573d5f803e3d5ffd5b50506003546040516376929da160e11b81525f93506001600160a01b03909116915063ed253b4290610a26908590600401611fde565b5f60405180830381865afa158015610a40573d5f803e3d5ffd5b505050506040513d5f823e601f3d908101601f19168201604052610a67919081019061200a565b90508060200151826004015403610b6457600254604051634f80f70f60e11b81525f916001600160a01b031690639f01ee1e90610aa8908690600401611fde565b602060405180830381865afa158015610ac3573d5f803e3d5ffd5b505050506040513d601f19601f82011682018060405250810190610ae791906120eb565b90508015610b6257600280549084015460018501546040516323b872dd60e01b81526001600160a01b0392831660048201529082166024820152604481018490529116906323b872dd906064015f604051808303815f87803b158015610b4b575f80fd5b505af1158015610b5d573d5f803e3d5ffd5b505050505b505b604051600690610b75908490612102565b9081526040519081900360200181205f905560018301546001600160a01b031690610ba1908490612102565b6040518091039020847f47a499682976a00ef58a77188d174aed35f765cd00b3798e5740dee7968376598560030154604051610bdf91815260200190565b60405180910390a4505050565b610c50604051806101400160405280606081526020015f6001600160a01b031681526020015f6001600160a01b031681526020015f81526020015f81526020015f81526020015f81526020015f151581526020015f15158152602001606081525090565b5f828152600560205260409081902081516101408101909252805482908290610c7890611ede565b80601f0160208091040260200160405190810160405280929190818152602001828054610ca490611ede565b8015610cef5780601f10610cc657610100808354040283529160200191610cef565b820191905f5260205f20905b815481529060010190602001808311610cd257829003601f168201915b505050918352505060018201546001600160a01b03908116602083015260028301541660408201526003820154606082015260048201546080820152600582015460a0820152600682015460c0820152600782015460ff808216151560e0840152610100918290041615159082015260088201805461012090920191610d7490611ede565b80601f0160208091040260200160405190810160405280929190818152602001828054610da090611ede565b8015610deb5780601f10610dc257610100808354040283529160200191610deb565b820191905f5260205f20905b815481529060010190602001808311610dce57829003601f168201915b5050505050815250509050919050565b610e036117cd565b60025460405163ef70d75360e01b81526001600160a01b039091169063ef70d75390610e3d908d908d908d908d908c908990600401612174565b6020604051808303815f875af1158015610e59573d5f803e3d5ffd5b505050506040513d601f19601f82011682018060405250810190610e7d91906120eb565b5060035460405163053a49d960e51b81526001600160a01b039091169063a7493b2090610eb4908d908b908b9087906004016121d4565b5f604051808303815f87803b158015610ecb575f80fd5b505af1158015610edd573d5f803e3d5ffd5b50506004805460405163021d14c960e61b81526001600160a01b03909116935063874532409250610f16918e918991899189910161225e565b5f604051808303815f87803b158015610f2d575f80fd5b505af1158015610f3f573d5f803e3d5ffd5b5050505050505050505050505050565b6004805460405163712affb360e01b81526001600160a01b039091169163712affb3913491610f8091869101612306565b5f604051808303818588803b158015610f97575f80fd5b505af1158015610fa9573d5f803e3d5ffd5b505050505050565b5f80600683604051610fc39190612318565b9081526040519081900360200190205490508015801590610ff457505f8181526005602052604090206007015460ff165b9392505050565b6110036117cd565b5f828152600560205260409020600781015460ff166110345760405162461bcd60e51b815260040161078f90611f16565b60088101611042838261237d565b50604051611051908290612102565b6040518091039020837fd730a78d85f1962d39c2dab25d2bd633ee22e730eaa382fa2c70243db65ad854846040516110899190612306565b60405180910390a3505050565b61109e6117cd565b47806110e35760405162461bcd60e51b81526020600482015260146024820152734e6f2066756e647320746f20776974686472617760601b604482015260640161078f565b5f80546040516001600160a01b039091169183156108fc02918491818181858888f19350505050158015611119573d5f803e3d5ffd5b5050565b5f818152600560205260409020600781015460ff1661114e5760405162461bcd60e51b815260040161078f90611f16565b60018101546001600160a01b0316331480611175575060028101546001600160a01b031633145b8061118957505f546001600160a01b031633145b6111d55760405162461bcd60e51b815260206004820152601f60248201527f4e6f7420617574686f72697a656420746f2063616e63656c20657363726f7700604482015260640161078f565b60078101805460ff191690556040516006906111f2908390612102565b9081526040519081900360200181205f905560018201546001600160a01b03169061121e908390612102565b6040519081900381209084907f8d153ab032dec064383d94d3b6cc793020b90d5270c75a83b516bdc996716c58905f90a45050565b61125b6117cd565b6001600160a01b03811661128457604051631e4fbdf760e01b81525f600482015260240161078f565b61128d816117f9565b50565b5f6006826040516112a19190612318565b9081526020016040518091039020549050919050565b5f6112c06117cd565b6001600160a01b03851661130e5760405162461bcd60e51b8152602060048201526015602482015274496e76616c6964206275796572206164647265737360581b604482015260640161078f565b5f84116113695760405162461bcd60e51b8152602060048201526024808201527f53686172657320616d6f756e74206d75737420626520677265617465722074686044820152630616e20360e41b606482015260840161078f565b4283116113b85760405162461bcd60e51b815260206004820152601e60248201527f446561646c696e65206d75737420626520696e20746865206675747572650000604482015260640161078f565b5f801b6006876040516113cb9190612318565b908152602001604051809103902054146114325760405162461bcd60e51b815260206004820152602260248201527f50726f706572747920616c7265616479206861732061637469766520657363726044820152616f7760f01b606482015260840161078f565b6003546040516376929da160e11b81525f916001600160a01b03169063ed253b4290611462908a90600401612306565b5f60405180830381865afa15801561147c573d5f803e3d5ffd5b505050506040513d5f823e601f3d908101601f191682016040526114a3919081019061200a565b90505f8160200151116114f85760405162461bcd60e51b815260206004820152601c60248201527f50726f70657274792073686172657320646f206e6f7420657869737400000000604482015260640161078f565b80606001516115495760405162461bcd60e51b815260206004820152601e60248201527f50726f70657274792073686172657320617265206e6f74206163746976650000604482015260640161078f565b806020015185111561159d5760405162461bcd60e51b815260206004820152601b60248201527f4e6f7420656e6f7567682073686172657320617661696c61626c650000000000604482015260640161078f565b5f8160400151866115ae919061244d565b90505f888888426007546040516020016115cc95949392919061246a565b60408051601f198184030181529190528051602090910120600780549192505f6115f5836124b5565b91905055506040518061014001604052808a8152602001896001600160a01b0316815260200184608001516001600160a01b031681526020018381526020018881526020014281526020018781526020016001151581526020015f151581526020018681525060055f8381526020019081526020015f205f820151815f01908161167f919061237d565b5060208201516001820180546001600160a01b039283166001600160a01b0319918216179091556040840151600284018054919093169116179055606082015160038201556080820151600482015560a0820151600582015560c0820151600682015560e08201516007820180546101008086015115150261ff00199315159390931661ffff19909116179190911790556101208201516008820190611725908261237d565b509050508060068a60405161173a9190612318565b908152602001604051809103902081905550876001600160a01b0316896040516117649190612318565b604080519182900382206080808801516001600160a01b03168452602084018790529183018b9052606083018a90529184917f5ad99066c1dd7d8fd37a1d7d02b5f7c6a06b2c95aa02dddcd83e1583a2228184910160405180910390a498975050505050505050565b5f546001600160a01b0316331461089e5760405163118cdaa760e01b815233600482015260240161078f565b5f80546001600160a01b038381166001600160a01b0319831681178455604051919092169283917f8be0079c531659141344cd1fd0a4f28419497f9722a3daafe3b4186f6b6457e09190a35050565b5f60208284031215611858575f80fd5b5035919050565b5f5b83811015611879578181015183820152602001611861565b50505f910152565b5f815180845261189881602086016020860161185f565b601f01601f19169290920160200192915050565b5f6101408083526118bf8184018e611881565b6001600160a01b038d811660208601528c166040850152606084018b9052608084018a905260a0840189905260c0840188905286151560e085015285151561010085015283810361012085015290506119188185611881565b9d9c50505050505050505050505050565b6001600160a01b038116811461128d575f80fd5b803561194881611929565b919050565b5f805f6060848603121561195f575f80fd5b833561196a81611929565b9250602084013561197a81611929565b9150604084013561198a81611929565b809150509250925092565b602081525f82516101408060208501526119b3610160850183611881565b915060208501516119cf60408601826001600160a01b03169052565b5060408501516001600160a01b03811660608601525060608501516080850152608085015160a085015260a085015160c085015260c085015160e085015260e0850151610100611a228187018315159052565b8601519050610120611a378682018315159052565b860151858403601f1901838701529050611a518382611881565b9695505050505050565b634e487b7160e01b5f52604160045260245ffd5b60405160c0810167ffffffffffffffff81118282101715611a9257611a92611a5b565b60405290565b604051601f8201601f1916810167ffffffffffffffff81118282101715611ac157611ac1611a5b565b604052919050565b5f67ffffffffffffffff821115611ae257611ae2611a5b565b50601f01601f191660200190565b5f82601f830112611aff575f80fd5b8135611b12611b0d82611ac9565b611a98565b818152846020838601011115611b26575f80fd5b816020850160208301375f918101602001919091529392505050565b5f67ffffffffffffffff821115611b5b57611b5b611a5b565b5060051b60200190565b5f82601f830112611b74575f80fd5b81356020611b84611b0d83611b42565b82815260059290921b84018101918181019086841115611ba2575f80fd5b8286015b84811015611bc6578035611bb981611929565b8352918301918301611ba6565b509695505050505050565b5f82601f830112611be0575f80fd5b81356020611bf0611b0d83611b42565b82815260059290921b84018101918181019086841115611c0e575f80fd5b8286015b84811015611bc65780358352918301918301611c12565b5f82601f830112611c38575f80fd5b81356020611c48611b0d83611b42565b82815260059290921b84018101918181019086841115611c66575f80fd5b8286015b84811015611bc657803567ffffffffffffffff811115611c89575f8081fd5b611c978986838b0101611af0565b845250918301918301611c6a565b5f805f805f805f805f806101408b8d031215611cbf575f80fd5b8a3567ffffffffffffffff80821115611cd6575f80fd5b611ce28e838f01611af0565b9b5060208d0135915080821115611cf7575f80fd5b611d038e838f01611af0565b9a5060408d0135995060608d0135985060808d0135975060a08d0135915080821115611d2d575f80fd5b611d398e838f01611af0565b965060c08d0135915080821115611d4e575f80fd5b611d5a8e838f01611b65565b955060e08d0135915080821115611d6f575f80fd5b611d7b8e838f01611bd1565b94506101008d0135915080821115611d91575f80fd5b50611d9e8d828e01611c29565b925050611dae6101208c0161193d565b90509295989b9194979a5092959850565b5f60208284031215611dcf575f80fd5b813567ffffffffffffffff811115611de5575f80fd5b611df184828501611af0565b949350505050565b5f8060408385031215611e0a575f80fd5b82359150602083013567ffffffffffffffff811115611e27575f80fd5b611e3385828601611af0565b9150509250929050565b5f60208284031215611e4d575f80fd5b8135610ff481611929565b5f805f805f60a08688031215611e6c575f80fd5b853567ffffffffffffffff80821115611e83575f80fd5b611e8f89838a01611af0565b965060208801359150611ea182611929565b909450604087013593506060870135925060808701359080821115611ec4575f80fd5b50611ed188828901611af0565b9150509295509295909350565b600181811c90821680611ef257607f821691505b602082108103611f1057634e487b7160e01b5f52602260045260245ffd5b50919050565b602080825260149082015273457363726f77206973206e6f742061637469766560601b604082015260600190565b5f8154611f5081611ede565b808552602060018381168015611f6d5760018114611f8757611fb2565b60ff1985168884015283151560051b880183019550611fb2565b865f52825f205f5b85811015611faa5781548a8201860152908301908401611f8f565b890184019650505b505050505092915050565b604081525f611fcf6040830185611f44565b90508260208301529392505050565b602081525f610ff46020830184611f44565b80518015158114611948575f80fd5b805161194881611929565b5f602080838503121561201b575f80fd5b825167ffffffffffffffff80821115612032575f80fd5b9084019060c08287031215612045575f80fd5b61204d611a6f565b82518281111561205b575f80fd5b83019150601f8201871361206d575f80fd5b815161207b611b0d82611ac9565b818152888683860101111561208e575f80fd5b61209d8287830188870161185f565b8252508284015184820152604080840151908201526120be60608401611ff0565b60608201526120cf60808401611fff565b608082015260a083015160a08201528094505050505092915050565b5f602082840312156120fb575f80fd5b5051919050565b5f80835461210f81611ede565b60018281168015612127576001811461213c57612168565b60ff1984168752821515830287019450612168565b875f526020805f205f5b8581101561215f5781548a820152908401908201612146565b50505082870194505b50929695505050505050565b60c081525f61218660c0830189611881565b82810360208401526121988189611881565b905086604084015285606084015282810360808401526121b88186611881565b91505060018060a01b03831660a0830152979650505050505050565b608081525f6121e66080830187611881565b60208301959095525060408101929092526001600160a01b0316606090910152919050565b5f81518084526020808501808196508360051b810191508286015f5b8581101561225157828403895261223f848351611881565b98850198935090840190600101612227565b5091979650505050505050565b608081525f6122706080830187611881565b8281036020848101919091528651808352878201928201905f5b818110156122af5784516001600160a01b03168352938301939183019160010161228a565b5050848103604086015286518082529082019250818701905f5b818110156122e5578251855293830193918301916001016122c9565b5050505082810360608401526122fb818561220b565b979650505050505050565b602081525f610ff46020830184611881565b5f825161232981846020870161185f565b9190910192915050565b601f821115612378575f81815260208120601f850160051c810160208610156123595750805b601f850160051c820191505b81811015610fa957828155600101612365565b505050565b815167ffffffffffffffff81111561239757612397611a5b565b6123ab816123a58454611ede565b84612333565b602080601f8311600181146123de575f84156123c75750858301515b5f19600386901b1c1916600185901b178555610fa9565b5f85815260208120601f198616915b8281101561240c578886015182559484019460019091019084016123ed565b508582101561242957878501515f19600388901b60f8161c191681555b5050505050600190811b01905550565b634e487b7160e01b5f52601160045260245ffd5b808202811582820484141761246457612464612439565b92915050565b5f865161247b818460208b0161185f565b60609690961b6bffffffffffffffffffffffff19169190950190815260148101939093526034830191909152605482015260740192915050565b5f600182016124c6576124c6612439565b506001019056fea2646970667358221220965c27e5b7549f0f7688eaafe74de2e6b400b0bb4b8f45a3463c246db29f9cef64736f6c63430008140033","opcodes":"PUSH1 0x80 PUSH1 0x40 MSTORE CALLVALUE DUP1 ISZERO PUSH3 0x10 JUMPI PUSH0 DUP1 REVERT JUMPDEST POP PUSH1 0x40 MLOAD PUSH3 0x266F CODESIZE SUB DUP1 PUSH3 0x266F DUP4 CODECOPY DUP2 ADD PUSH1 0x40 DUP2 SWAP1 MSTORE PUSH3 0x33 SWAP2 PUSH3 0x117 JUMP JUMPDEST CALLER DUP1 PUSH3 0x59 JUMPI PUSH1 0x40 MLOAD PUSH4 0x1E4FBDF7 PUSH1 0xE0 SHL DUP2 MSTORE PUSH0 PUSH1 0x4 DUP3 ADD MSTORE PUSH1 0x24 ADD PUSH1 0x40 MLOAD DUP1 SWAP2 SUB SWAP1 REVERT JUMPDEST PUSH3 0x64 DUP2 PUSH3 0xAC JUMP JUMPDEST POP PUSH1 0x1 DUP1 SSTORE PUSH1 0x2 DUP1 SLOAD PUSH1 0x1 PUSH1 0x1 PUSH1 0xA0 SHL SUB SWAP5 DUP6 AND PUSH1 0x1 PUSH1 0x1 PUSH1 0xA0 SHL SUB NOT SWAP2 DUP3 AND OR SWAP1 SWAP2 SSTORE PUSH1 0x3 DUP1 SLOAD SWAP4 DUP6 AND SWAP4 DUP3 AND SWAP4 SWAP1 SWAP4 OR SWAP1 SWAP3 SSTORE PUSH1 0x4 DUP1 SLOAD SWAP2 SWAP1 SWAP4 AND SWAP2 AND OR SWAP1 SSTORE PUSH3 0x15E JUMP JUMPDEST PUSH0 DUP1 SLOAD PUSH1 0x1 PUSH1 0x1 PUSH1 0xA0 SHL SUB DUP4 DUP2 AND PUSH1 0x1 PUSH1 0x1 PUSH1 0xA0 SHL SUB NOT DUP4 AND DUP2 OR DUP5 SSTORE PUSH1 0x40 MLOAD SWAP2 SWAP1 SWAP3 AND SWAP3 DUP4 SWAP2 PUSH32 0x8BE0079C531659141344CD1FD0A4F28419497F9722A3DAAFE3B4186F6B6457E0 SWAP2 SWAP1 LOG3 POP POP JUMP JUMPDEST DUP1 MLOAD PUSH1 0x1 PUSH1 0x1 PUSH1 0xA0 SHL SUB DUP2 AND DUP2 EQ PUSH3 0x112 JUMPI PUSH0 DUP1 REVERT JUMPDEST SWAP2 SWAP1 POP JUMP JUMPDEST PUSH0 DUP1 PUSH0 PUSH1 0x60 DUP5 DUP7 SUB SLT ISZERO PUSH3 0x12A JUMPI PUSH0 DUP1 REVERT JUMPDEST PUSH3 0x135 DUP5 PUSH3 0xFB JUMP JUMPDEST SWAP3 POP PUSH3 0x145 PUSH1 0x20 DUP6 ADD PUSH3 0xFB JUMP JUMPDEST SWAP2 POP PUSH3 0x155 PUSH1 0x40 DUP6 ADD PUSH3 0xFB JUMP JUMPDEST SWAP1 POP SWAP3 POP SWAP3 POP SWAP3 JUMP JUMPDEST PUSH2 0x2503 DUP1 PUSH3 0x16C PUSH0 CODECOPY PUSH0 RETURN INVALID PUSH1 0x80 PUSH1 0x40 MSTORE PUSH1 0x4 CALLDATASIZE LT PUSH2 0x11B JUMPI PUSH0 CALLDATALOAD PUSH1 0xE0 SHR DUP1 PUSH4 0x998B0A2D GT PUSH2 0x9D JUMPI DUP1 PUSH4 0xDB2E21BC GT PUSH2 0x62 JUMPI DUP1 PUSH4 0xDB2E21BC EQ PUSH2 0x36B JUMPI DUP1 PUSH4 0xEE5E3B81 EQ PUSH2 0x37F JUMPI DUP1 PUSH4 0xF2FDE38B EQ PUSH2 0x39E JUMPI DUP1 PUSH4 0xFA49C5C3 EQ PUSH2 0x3BD JUMPI DUP1 PUSH4 0xFA7CB3CC EQ PUSH2 0x3DC JUMPI PUSH0 DUP1 REVERT JUMPDEST DUP1 PUSH4 0x998B0A2D EQ PUSH2 0x2A6 JUMPI DUP1 PUSH4 0xABEAB219 EQ PUSH2 0x2C5 JUMPI DUP1 PUSH4 0xAFEB06EE EQ PUSH2 0x2D8 JUMPI DUP1 PUSH4 0xBF1FBAEE EQ PUSH2 0x307 JUMPI DUP1 PUSH4 0xCEA040C4 EQ PUSH2 0x326 JUMPI PUSH0 DUP1 REVERT JUMPDEST DUP1 PUSH4 0x715018A6 GT PUSH2 0xE3 JUMPI DUP1 PUSH4 0x715018A6 EQ PUSH2 0x20C JUMPI DUP1 PUSH4 0x7BC1ED63 EQ PUSH2 0x220 JUMPI DUP1 PUSH4 0x88D7C091 EQ PUSH2 0x23F JUMPI DUP1 PUSH4 0x8DA5CB5B EQ PUSH2 0x25E JUMPI DUP1 PUSH4 0x9585E82D EQ PUSH2 0x27A JUMPI PUSH0 DUP1 REVERT JUMPDEST DUP1 PUSH4 0x29642F41 EQ PUSH2 0x11F JUMPI DUP1 PUSH4 0x2D83549C EQ PUSH2 0x15B JUMPI DUP1 PUSH4 0x3F53BD77 EQ PUSH2 0x190 JUMPI DUP1 PUSH4 0x5356D0CA EQ PUSH2 0x1AF JUMPI DUP1 PUSH4 0x6DCA4D44 EQ PUSH2 0x1EB JUMPI JUMPDEST PUSH0 DUP1 REVERT JUMPDEST CALLVALUE DUP1 ISZERO PUSH2 0x12A JUMPI PUSH0 DUP1 REVERT JUMPDEST POP PUSH1 0x4 SLOAD PUSH2 0x13E SWAP1 PUSH1 0x1 PUSH1 0x1 PUSH1 0xA0 SHL SUB AND DUP2 JUMP JUMPDEST PUSH1 0x40 MLOAD PUSH1 0x1 PUSH1 0x1 PUSH1 0xA0 SHL SUB SWAP1 SWAP2 AND DUP2 MSTORE PUSH1 0x20 ADD JUMPDEST PUSH1 0x40 MLOAD DUP1 SWAP2 SUB SWAP1 RETURN JUMPDEST CALLVALUE DUP1 ISZERO PUSH2 0x166 JUMPI PUSH0 DUP1 REVERT JUMPDEST POP PUSH2 0x17A PUSH2 0x175 CALLDATASIZE PUSH1 0x4 PUSH2 0x1848 JUMP JUMPDEST PUSH2 0x3FB JUMP JUMPDEST PUSH1 0x40 MLOAD PUSH2 0x152 SWAP11 SWAP10 SWAP9 SWAP8 SWAP7 SWAP6 SWAP5 SWAP4 SWAP3 SWAP2 SWAP1 PUSH2 0x18AC JUMP JUMPDEST CALLVALUE DUP1 ISZERO PUSH2 0x19B JUMPI PUSH0 DUP1 REVERT JUMPDEST POP PUSH1 0x2 SLOAD PUSH2 0x13E SWAP1 PUSH1 0x1 PUSH1 0x1 PUSH1 0xA0 SHL SUB AND DUP2 JUMP JUMPDEST CALLVALUE DUP1 ISZERO PUSH2 0x1BA JUMPI PUSH0 DUP1 REVERT JUMPDEST POP PUSH2 0x1CE PUSH2 0x1C9 CALLDATASIZE PUSH1 0x4 PUSH2 0x1848 JUMP JUMPDEST PUSH2 0x56D JUMP JUMPDEST PUSH1 0x40 DUP1 MLOAD SWAP4 ISZERO ISZERO DUP5 MSTORE SWAP2 ISZERO ISZERO PUSH1 0x20 DUP5 ADD MSTORE SWAP1 DUP3 ADD MSTORE PUSH1 0x60 ADD PUSH2 0x152 JUMP JUMPDEST CALLVALUE DUP1 ISZERO PUSH2 0x1F6 JUMPI PUSH0 DUP1 REVERT JUMPDEST POP PUSH2 0x20A PUSH2 0x205 CALLDATASIZE PUSH1 0x4 PUSH2 0x194D JUMP JUMPDEST PUSH2 0x735 JUMP JUMPDEST STOP JUMPDEST CALLVALUE DUP1 ISZERO PUSH2 0x217 JUMPI PUSH0 DUP1 REVERT JUMPDEST POP PUSH2 0x20A PUSH2 0x88D JUMP JUMPDEST CALLVALUE DUP1 ISZERO PUSH2 0x22B JUMPI PUSH0 DUP1 REVERT JUMPDEST POP PUSH1 0x3 SLOAD PUSH2 0x13E SWAP1 PUSH1 0x1 PUSH1 0x1 PUSH1 0xA0 SHL SUB AND DUP2 JUMP JUMPDEST CALLVALUE DUP1 ISZERO PUSH2 0x24A JUMPI PUSH0 DUP1 REVERT JUMPDEST POP PUSH2 0x20A PUSH2 0x259 CALLDATASIZE PUSH1 0x4 PUSH2 0x1848 JUMP JUMPDEST PUSH2 0x8A0 JUMP JUMPDEST CALLVALUE DUP1 ISZERO PUSH2 0x269 JUMPI PUSH0 DUP1 REVERT JUMPDEST POP PUSH0 SLOAD PUSH1 0x1 PUSH1 0x1 PUSH1 0xA0 SHL SUB AND PUSH2 0x13E JUMP JUMPDEST CALLVALUE DUP1 ISZERO PUSH2 0x285 JUMPI PUSH0 DUP1 REVERT JUMPDEST POP PUSH2 0x299 PUSH2 0x294 CALLDATASIZE PUSH1 0x4 PUSH2 0x1848 JUMP JUMPDEST PUSH2 0xBEC JUMP JUMPDEST PUSH1 0x40 MLOAD PUSH2 0x152 SWAP2 SWAP1 PUSH2 0x1995 JUMP JUMPDEST CALLVALUE DUP1 ISZERO PUSH2 0x2B1 JUMPI PUSH0 DUP1 REVERT JUMPDEST POP PUSH2 0x20A PUSH2 0x2C0 CALLDATASIZE PUSH1 0x4 PUSH2 0x1CA5 JUMP JUMPDEST PUSH2 0xDFB JUMP JUMPDEST PUSH2 0x20A PUSH2 0x2D3 CALLDATASIZE PUSH1 0x4 PUSH2 0x1DBF JUMP JUMPDEST PUSH2 0xF4F JUMP JUMPDEST CALLVALUE DUP1 ISZERO PUSH2 0x2E3 JUMPI PUSH0 DUP1 REVERT JUMPDEST POP PUSH2 0x2F7 PUSH2 0x2F2 CALLDATASIZE PUSH1 0x4 PUSH2 0x1DBF JUMP JUMPDEST PUSH2 0xFB1 JUMP JUMPDEST PUSH1 0x40 MLOAD SWAP1 ISZERO ISZERO DUP2 MSTORE PUSH1 0x20 ADD PUSH2 0x152 JUMP JUMPDEST CALLVALUE DUP1 ISZERO PUSH2 0x312 JUMPI PUSH0 DUP1 REVERT JUMPDEST POP PUSH2 0x20A PUSH2 0x321 CALLDATASIZE PUSH1 0x4 PUSH2 0x1DF9 JUMP JUMPDEST PUSH2 0xFFB JUMP JUMPDEST CALLVALUE DUP1 ISZERO PUSH2 0x331 JUMPI PUSH0 DUP1 REVERT JUMPDEST POP PUSH2 0x35D PUSH2 0x340 CALLDATASIZE PUSH1 0x4 PUSH2 0x1DBF JUMP JUMPDEST DUP1 MLOAD PUSH1 0x20 DUP2 DUP4 ADD DUP2 ADD DUP1 MLOAD PUSH1 0x6 DUP3 MSTORE SWAP3 DUP3 ADD SWAP2 SWAP1 SWAP4 ADD KECCAK256 SWAP2 MSTORE SLOAD DUP2 JUMP JUMPDEST PUSH1 0x40 MLOAD SWAP1 DUP2 MSTORE PUSH1 0x20 ADD PUSH2 0x152 JUMP JUMPDEST CALLVALUE DUP1 ISZERO PUSH2 0x376 JUMPI PUSH0 DUP1 REVERT JUMPDEST POP PUSH2 0x20A PUSH2 0x1096 JUMP JUMPDEST CALLVALUE DUP1 ISZERO PUSH2 0x38A JUMPI PUSH0 DUP1 REVERT JUMPDEST POP PUSH2 0x20A PUSH2 0x399 CALLDATASIZE PUSH1 0x4 PUSH2 0x1848 JUMP JUMPDEST PUSH2 0x111D JUMP JUMPDEST CALLVALUE DUP1 ISZERO PUSH2 0x3A9 JUMPI PUSH0 DUP1 REVERT JUMPDEST POP PUSH2 0x20A PUSH2 0x3B8 CALLDATASIZE PUSH1 0x4 PUSH2 0x1E3D JUMP JUMPDEST PUSH2 0x1253 JUMP JUMPDEST CALLVALUE DUP1 ISZERO PUSH2 0x3C8 JUMPI PUSH0 DUP1 REVERT JUMPDEST POP PUSH2 0x35D PUSH2 0x3D7 CALLDATASIZE PUSH1 0x4 PUSH2 0x1DBF JUMP JUMPDEST PUSH2 0x1290 JUMP JUMPDEST CALLVALUE DUP1 ISZERO PUSH2 0x3E7 JUMPI PUSH0 DUP1 REVERT JUMPDEST POP PUSH2 0x35D PUSH2 0x3F6 CALLDATASIZE PUSH1 0x4 PUSH2 0x1E58 JUMP JUMPDEST PUSH2 0x12B7 JUMP JUMPDEST PUSH1 0x5 PUSH1 0x20 MSTORE PUSH0 SWAP1 DUP2 MSTORE PUSH1 0x40 SWAP1 KECCAK256 DUP1 SLOAD DUP2 SWAP1 PUSH2 0x415 SWAP1 PUSH2 0x1EDE JUMP JUMPDEST DUP1 PUSH1 0x1F ADD PUSH1 0x20 DUP1 SWAP2 DIV MUL PUSH1 0x20 ADD PUSH1 0x40 MLOAD SWAP1 DUP2 ADD PUSH1 0x40 MSTORE DUP1 SWAP3 SWAP2 SWAP1 DUP2 DUP2 MSTORE PUSH1 0x20 ADD DUP3 DUP1 SLOAD PUSH2 0x441 SWAP1 PUSH2 0x1EDE JUMP JUMPDEST DUP1 ISZERO PUSH2 0x48C JUMPI DUP1 PUSH1 0x1F LT PUSH2 0x463 JUMPI PUSH2 0x100 DUP1 DUP4 SLOAD DIV MUL DUP4 MSTORE SWAP2 PUSH1 0x20 ADD SWAP2 PUSH2 0x48C JUMP JUMPDEST DUP3 ADD SWAP2 SWAP1 PUSH0 MSTORE PUSH1 0x20 PUSH0 KECCAK256 SWAP1 JUMPDEST DUP2 SLOAD DUP2 MSTORE SWAP1 PUSH1 0x1 ADD SWAP1 PUSH1 0x20 ADD DUP1 DUP4 GT PUSH2 0x46F JUMPI DUP3 SWAP1 SUB PUSH1 0x1F AND DUP3 ADD SWAP2 JUMPDEST POP POP POP PUSH1 0x1 DUP5 ADD SLOAD PUSH1 0x2 DUP6 ADD SLOAD PUSH1 0x3 DUP7 ADD SLOAD PUSH1 0x4 DUP8 ADD SLOAD PUSH1 0x5 DUP9 ADD SLOAD PUSH1 0x6 DUP10 ADD SLOAD PUSH1 0x7 DUP11 ADD SLOAD PUSH1 0x8 DUP12 ADD DUP1 SLOAD SWAP11 SWAP12 PUSH1 0x1 PUSH1 0x1 PUSH1 0xA0 SHL SUB SWAP9 DUP10 AND SWAP12 SWAP8 SWAP1 SWAP9 AND SWAP10 POP SWAP5 SWAP8 POP SWAP3 SWAP6 SWAP2 SWAP5 SWAP1 SWAP4 PUSH1 0xFF DUP1 DUP6 AND SWAP5 PUSH2 0x100 SWAP1 DIV AND SWAP3 SWAP2 PUSH2 0x4EC SWAP1 PUSH2 0x1EDE JUMP JUMPDEST DUP1 PUSH1 0x1F ADD PUSH1 0x20 DUP1 SWAP2 DIV MUL PUSH1 0x20 ADD PUSH1 0x40 MLOAD SWAP1 DUP2 ADD PUSH1 0x40 MSTORE DUP1 SWAP3 SWAP2 SWAP1 DUP2 DUP2 MSTORE PUSH1 0x20 ADD DUP3 DUP1 SLOAD PUSH2 0x518 SWAP1 PUSH2 0x1EDE JUMP JUMPDEST DUP1 ISZERO PUSH2 0x563 JUMPI DUP1 PUSH1 0x1F LT PUSH2 0x53A JUMPI PUSH2 0x100 DUP1 DUP4 SLOAD DIV MUL DUP4 MSTORE SWAP2 PUSH1 0x20 ADD SWAP2 PUSH2 0x563 JUMP JUMPDEST DUP3 ADD SWAP2 SWAP1 PUSH0 MSTORE PUSH1 0x20 PUSH0 KECCAK256 SWAP1 JUMPDEST DUP2 SLOAD DUP2 MSTORE SWAP1 PUSH1 0x1 ADD SWAP1 PUSH1 0x20 ADD DUP1 DUP4 GT PUSH2 0x546 JUMPI DUP3 SWAP1 SUB PUSH1 0x1F AND DUP3 ADD SWAP2 JUMPDEST POP POP POP POP POP SWAP1 POP DUP11 JUMP JUMPDEST PUSH0 DUP2 DUP2 MSTORE PUSH1 0x5 PUSH1 0x20 MSTORE PUSH1 0x40 DUP1 DUP3 KECCAK256 DUP2 MLOAD PUSH2 0x140 DUP2 ADD SWAP1 SWAP3 MSTORE DUP1 SLOAD DUP4 SWAP3 DUP4 SWAP3 DUP4 SWAP3 DUP3 SWAP1 DUP3 SWAP1 PUSH2 0x59A SWAP1 PUSH2 0x1EDE JUMP JUMPDEST DUP1 PUSH1 0x1F ADD PUSH1 0x20 DUP1 SWAP2 DIV MUL PUSH1 0x20 ADD PUSH1 0x40 MLOAD SWAP1 DUP2 ADD PUSH1 0x40 MSTORE DUP1 SWAP3 SWAP2 SWAP1 DUP2 DUP2 MSTORE PUSH1 0x20 ADD DUP3 DUP1 SLOAD PUSH2 0x5C6 SWAP1 PUSH2 0x1EDE JUMP JUMPDEST DUP1 ISZERO PUSH2 0x611 JUMPI DUP1 PUSH1 0x1F LT PUSH2 0x5E8 JUMPI PUSH2 0x100 DUP1 DUP4 SLOAD DIV MUL DUP4 MSTORE SWAP2 PUSH1 0x20 ADD SWAP2 PUSH2 0x611 JUMP JUMPDEST DUP3 ADD SWAP2 SWAP1 PUSH0 MSTORE PUSH1 0x20 PUSH0 KECCAK256 SWAP1 JUMPDEST DUP2 SLOAD DUP2 MSTORE SWAP1 PUSH1 0x1 ADD SWAP1 PUSH1 0x20 ADD DUP1 DUP4 GT PUSH2 0x5F4 JUMPI DUP3 SWAP1 SUB PUSH1 0x1F AND DUP3 ADD SWAP2 JUMPDEST POP POP POP SWAP2 DUP4 MSTORE POP POP PUSH1 0x1 DUP3 ADD SLOAD PUSH1 0x1 PUSH1 0x1 PUSH1 0xA0 SHL SUB SWAP1 DUP2 AND PUSH1 0x20 DUP4 ADD MSTORE PUSH1 0x2 DUP4 ADD SLOAD AND PUSH1 0x40 DUP3 ADD MSTORE PUSH1 0x3 DUP3 ADD SLOAD PUSH1 0x60 DUP3 ADD MSTORE PUSH1 0x4 DUP3 ADD SLOAD PUSH1 0x80 DUP3 ADD MSTORE PUSH1 0x5 DUP3 ADD SLOAD PUSH1 0xA0 DUP3 ADD MSTORE PUSH1 0x6 DUP3 ADD SLOAD PUSH1 0xC0 DUP3 ADD MSTORE PUSH1 0x7 DUP3 ADD SLOAD PUSH1 0xFF DUP1 DUP3 AND ISZERO ISZERO PUSH1 0xE0 DUP5 ADD MSTORE PUSH2 0x100 SWAP2 DUP3 SWAP1 DIV AND ISZERO ISZERO SWAP1 DUP3 ADD MSTORE PUSH1 0x8 DUP3 ADD DUP1 SLOAD PUSH2 0x120 SWAP1 SWAP3 ADD SWAP2 PUSH2 0x696 SWAP1 PUSH2 0x1EDE JUMP JUMPDEST DUP1 PUSH1 0x1F ADD PUSH1 0x20 DUP1 SWAP2 DIV MUL PUSH1 0x20 ADD PUSH1 0x40 MLOAD SWAP1 DUP2 ADD PUSH1 0x40 MSTORE DUP1 SWAP3 SWAP2 SWAP1 DUP2 DUP2 MSTORE PUSH1 0x20 ADD DUP3 DUP1 SLOAD PUSH2 0x6C2 SWAP1 PUSH2 0x1EDE JUMP JUMPDEST DUP1 ISZERO PUSH2 0x70D JUMPI DUP1 PUSH1 0x1F LT PUSH2 0x6E4 JUMPI PUSH2 0x100 DUP1 DUP4 SLOAD DIV MUL DUP4 MSTORE SWAP2 PUSH1 0x20 ADD SWAP2 PUSH2 0x70D JUMP JUMPDEST DUP3 ADD SWAP2 SWAP1 PUSH0 MSTORE PUSH1 0x20 PUSH0 KECCAK256 SWAP1 JUMPDEST DUP2 SLOAD DUP2 MSTORE SWAP1 PUSH1 0x1 ADD SWAP1 PUSH1 0x20 ADD DUP1 DUP4 GT PUSH2 0x6F0 JUMPI DUP3 SWAP1 SUB PUSH1 0x1F AND DUP3 ADD SWAP2 JUMPDEST POP POP POP SWAP2 SWAP1 SWAP3 MSTORE POP POP POP PUSH1 0xE0 DUP2 ADD MLOAD PUSH2 0x100 DUP3 ADD MLOAD PUSH1 0xC0 SWAP1 SWAP3 ADD MLOAD SWAP1 SWAP8 SWAP2 SWAP7 POP SWAP5 POP SWAP3 POP POP POP JUMP JUMPDEST PUSH2 0x73D PUSH2 0x17CD JUMP JUMPDEST PUSH1 0x1 PUSH1 0x1 PUSH1 0xA0 SHL SUB DUP4 AND PUSH2 0x798 JUMPI PUSH1 0x40 MLOAD PUSH3 0x461BCD PUSH1 0xE5 SHL DUP2 MSTORE PUSH1 0x20 PUSH1 0x4 DUP3 ADD MSTORE PUSH1 0x1B PUSH1 0x24 DUP3 ADD MSTORE PUSH32 0x496E76616C6964207469746C65206465656420636F6E74726163740000000000 PUSH1 0x44 DUP3 ADD MSTORE PUSH1 0x64 ADD JUMPDEST PUSH1 0x40 MLOAD DUP1 SWAP2 SUB SWAP1 REVERT JUMPDEST PUSH1 0x1 PUSH1 0x1 PUSH1 0xA0 SHL SUB DUP3 AND PUSH2 0x7EE JUMPI PUSH1 0x40 MLOAD PUSH3 0x461BCD PUSH1 0xE5 SHL DUP2 MSTORE PUSH1 0x20 PUSH1 0x4 DUP3 ADD MSTORE PUSH1 0x17 PUSH1 0x24 DUP3 ADD MSTORE PUSH32 0x496E76616C69642073686172657320636F6E7472616374000000000000000000 PUSH1 0x44 DUP3 ADD MSTORE PUSH1 0x64 ADD PUSH2 0x78F JUMP JUMPDEST PUSH1 0x1 PUSH1 0x1 PUSH1 0xA0 SHL SUB DUP2 AND PUSH2 0x84E JUMPI PUSH1 0x40 MLOAD PUSH3 0x461BCD PUSH1 0xE5 SHL DUP2 MSTORE PUSH1 0x20 PUSH1 0x4 DUP3 ADD MSTORE PUSH1 0x21 PUSH1 0x24 DUP3 ADD MSTORE PUSH32 0x496E76616C6964207061796D656E742073706C697474657220636F6E74726163 PUSH1 0x44 DUP3 ADD MSTORE PUSH1 0x1D PUSH1 0xFA SHL PUSH1 0x64 DUP3 ADD MSTORE PUSH1 0x84 ADD PUSH2 0x78F JUMP JUMPDEST PUSH1 0x2 DUP1 SLOAD PUSH1 0x1 PUSH1 0x1 PUSH1 0xA0 SHL SUB SWAP5 DUP6 AND PUSH1 0x1 PUSH1 0x1 PUSH1 0xA0 SHL SUB NOT SWAP2 DUP3 AND OR SWAP1 SWAP2 SSTORE PUSH1 0x3 DUP1 SLOAD SWAP4 DUP6 AND SWAP4 DUP3 AND SWAP4 SWAP1 SWAP4 OR SWAP1 SWAP3 SSTORE PUSH1 0x4 DUP1 SLOAD SWAP2 SWAP1 SWAP4 AND SWAP2 AND OR SWAP1 SSTORE JUMP JUMPDEST PUSH2 0x895 PUSH2 0x17CD JUMP JUMPDEST PUSH2 0x89E PUSH0 PUSH2 0x17F9 JUMP JUMPDEST JUMP JUMPDEST PUSH2 0x8A8 PUSH2 0x17CD JUMP JUMPDEST PUSH0 DUP2 DUP2 MSTORE PUSH1 0x5 PUSH1 0x20 MSTORE PUSH1 0x40 SWAP1 KECCAK256 PUSH1 0x7 DUP2 ADD SLOAD PUSH1 0xFF AND PUSH2 0x8D9 JUMPI PUSH1 0x40 MLOAD PUSH3 0x461BCD PUSH1 0xE5 SHL DUP2 MSTORE PUSH1 0x4 ADD PUSH2 0x78F SWAP1 PUSH2 0x1F16 JUMP JUMPDEST PUSH1 0x7 DUP2 ADD SLOAD PUSH2 0x100 SWAP1 DIV PUSH1 0xFF AND ISZERO PUSH2 0x933 JUMPI PUSH1 0x40 MLOAD PUSH3 0x461BCD PUSH1 0xE5 SHL DUP2 MSTORE PUSH1 0x20 PUSH1 0x4 DUP3 ADD MSTORE PUSH1 0x18 PUSH1 0x24 DUP3 ADD MSTORE PUSH32 0x457363726F7720616C726561647920636F6D706C657465640000000000000000 PUSH1 0x44 DUP3 ADD MSTORE PUSH1 0x64 ADD PUSH2 0x78F JUMP JUMPDEST DUP1 PUSH1 0x6 ADD SLOAD TIMESTAMP GT ISZERO PUSH2 0x980 JUMPI PUSH1 0x40 MLOAD PUSH3 0x461BCD PUSH1 0xE5 SHL DUP2 MSTORE PUSH1 0x20 PUSH1 0x4 DUP3 ADD MSTORE PUSH1 0x16 PUSH1 0x24 DUP3 ADD MSTORE PUSH22 0x115CD8DC9BDDC8191958591B1A5B99481C185CDCD959 PUSH1 0x52 SHL PUSH1 0x44 DUP3 ADD MSTORE PUSH1 0x64 ADD PUSH2 0x78F JUMP JUMPDEST PUSH1 0x7 DUP2 ADD DUP1 SLOAD PUSH2 0xFFFF NOT AND PUSH2 0x100 OR SWAP1 SSTORE PUSH1 0x3 SLOAD PUSH1 0x4 DUP1 DUP4 ADD SLOAD PUSH1 0x40 MLOAD PUSH4 0x1BCBA7AF PUSH1 0xE1 SHL DUP2 MSTORE PUSH1 0x1 PUSH1 0x1 PUSH1 0xA0 SHL SUB SWAP1 SWAP4 AND SWAP3 PUSH4 0x37974F5E SWAP3 PUSH2 0x9C7 SWAP3 DUP7 SWAP3 SWAP1 SWAP2 ADD PUSH2 0x1FBD JUMP JUMPDEST PUSH0 PUSH1 0x40 MLOAD DUP1 DUP4 SUB DUP2 PUSH0 DUP8 DUP1 EXTCODESIZE ISZERO DUP1 ISZERO PUSH2 0x9DE JUMPI PUSH0 DUP1 REVERT JUMPDEST POP GAS CALL ISZERO DUP1 ISZERO PUSH2 0x9F0 JUMPI RETURNDATASIZE PUSH0 DUP1 RETURNDATACOPY RETURNDATASIZE PUSH0 REVERT JUMPDEST POP POP PUSH1 0x3 SLOAD PUSH1 0x40 MLOAD PUSH4 0x76929DA1 PUSH1 0xE1 SHL DUP2 MSTORE PUSH0 SWAP4 POP PUSH1 0x1 PUSH1 0x1 PUSH1 0xA0 SHL SUB SWAP1 SWAP2 AND SWAP2 POP PUSH4 0xED253B42 SWAP1 PUSH2 0xA26 SWAP1 DUP6 SWAP1 PUSH1 0x4 ADD PUSH2 0x1FDE JUMP JUMPDEST PUSH0 PUSH1 0x40 MLOAD DUP1 DUP4 SUB DUP2 DUP7 GAS STATICCALL ISZERO DUP1 ISZERO PUSH2 0xA40 JUMPI RETURNDATASIZE PUSH0 DUP1 RETURNDATACOPY RETURNDATASIZE PUSH0 REVERT JUMPDEST POP POP POP POP PUSH1 0x40 MLOAD RETURNDATASIZE PUSH0 DUP3 RETURNDATACOPY PUSH1 0x1F RETURNDATASIZE SWAP1 DUP2 ADD PUSH1 0x1F NOT AND DUP3 ADD PUSH1 0x40 MSTORE PUSH2 0xA67 SWAP2 SWAP1 DUP2 ADD SWAP1 PUSH2 0x200A JUMP JUMPDEST SWAP1 POP DUP1 PUSH1 0x20 ADD MLOAD DUP3 PUSH1 0x4 ADD SLOAD SUB PUSH2 0xB64 JUMPI PUSH1 0x2 SLOAD PUSH1 0x40 MLOAD PUSH4 0x4F80F70F PUSH1 0xE1 SHL DUP2 MSTORE PUSH0 SWAP2 PUSH1 0x1 PUSH1 0x1 PUSH1 0xA0 SHL SUB AND SWAP1 PUSH4 0x9F01EE1E SWAP1 PUSH2 0xAA8 SWAP1 DUP7 SWAP1 PUSH1 0x4 ADD PUSH2 0x1FDE JUMP JUMPDEST PUSH1 0x20 PUSH1 0x40 MLOAD DUP1 DUP4 SUB DUP2 DUP7 GAS STATICCALL ISZERO DUP1 ISZERO PUSH2 0xAC3 JUMPI RETURNDATASIZE PUSH0 DUP1 RETURNDATACOPY RETURNDATASIZE PUSH0 REVERT JUMPDEST POP POP POP POP PUSH1 0x40 MLOAD RETURNDATASIZE PUSH1 0x1F NOT PUSH1 0x1F DUP3 ADD AND DUP3 ADD DUP1 PUSH1 0x40 MSTORE POP DUP2 ADD SWAP1 PUSH2 0xAE7 SWAP2 SWAP1 PUSH2 0x20EB JUMP JUMPDEST SWAP1 POP DUP1 ISZERO PUSH2 0xB62 JUMPI PUSH1 0x2 DUP1 SLOAD SWAP1 DUP5 ADD SLOAD PUSH1 0x1 DUP6 ADD SLOAD PUSH1 0x40 MLOAD PUSH4 0x23B872DD PUSH1 0xE0 SHL DUP2 MSTORE PUSH1 0x1 PUSH1 0x1 PUSH1 0xA0 SHL SUB SWAP3 DUP4 AND PUSH1 0x4 DUP3 ADD MSTORE SWAP1 DUP3 AND PUSH1 0x24 DUP3 ADD MSTORE PUSH1 0x44 DUP2 ADD DUP5 SWAP1 MSTORE SWAP2 AND SWAP1 PUSH4 0x23B872DD SWAP1 PUSH1 0x64 ADD PUSH0 PUSH1 0x40 MLOAD DUP1 DUP4 SUB DUP2 PUSH0 DUP8 DUP1 EXTCODESIZE ISZERO DUP1 ISZERO PUSH2 0xB4B JUMPI PUSH0 DUP1 REVERT JUMPDEST POP GAS CALL ISZERO DUP1 ISZERO PUSH2 0xB5D JUMPI RETURNDATASIZE PUSH0 DUP1 RETURNDATACOPY RETURNDATASIZE PUSH0 REVERT JUMPDEST POP POP POP POP JUMPDEST POP JUMPDEST PUSH1 0x40 MLOAD PUSH1 0x6 SWAP1 PUSH2 0xB75 SWAP1 DUP5 SWAP1 PUSH2 0x2102 JUMP JUMPDEST SWAP1 DUP2 MSTORE PUSH1 0x40 MLOAD SWAP1 DUP2 SWAP1 SUB PUSH1 0x20 ADD DUP2 KECCAK256 PUSH0 SWAP1 SSTORE PUSH1 0x1 DUP4 ADD SLOAD PUSH1 0x1 PUSH1 0x1 PUSH1 0xA0 SHL SUB AND SWAP1 PUSH2 0xBA1 SWAP1 DUP5 SWAP1 PUSH2 0x2102 JUMP JUMPDEST PUSH1 0x40 MLOAD DUP1 SWAP2 SUB SWAP1 KECCAK256 DUP5 PUSH32 0x47A499682976A00EF58A77188D174AED35F765CD00B3798E5740DEE796837659 DUP6 PUSH1 0x3 ADD SLOAD PUSH1 0x40 MLOAD PUSH2 0xBDF SWAP2 DUP2 MSTORE PUSH1 0x20 ADD SWAP1 JUMP JUMPDEST PUSH1 0x40 MLOAD DUP1 SWAP2 SUB SWAP1 LOG4 POP POP POP JUMP JUMPDEST PUSH2 0xC50 PUSH1 0x40 MLOAD DUP1 PUSH2 0x140 ADD PUSH1 0x40 MSTORE DUP1 PUSH1 0x60 DUP2 MSTORE PUSH1 0x20 ADD PUSH0 PUSH1 0x1 PUSH1 0x1 PUSH1 0xA0 SHL SUB AND DUP2 MSTORE PUSH1 0x20 ADD PUSH0 PUSH1 0x1 PUSH1 0x1 PUSH1 0xA0 SHL SUB AND DUP2 MSTORE PUSH1 0x20 ADD PUSH0 DUP2 MSTORE PUSH1 0x20 ADD PUSH0 DUP2 MSTORE PUSH1 0x20 ADD PUSH0 DUP2 MSTORE PUSH1 0x20 ADD PUSH0 DUP2 MSTORE PUSH1 0x20 ADD PUSH0 ISZERO ISZERO DUP2 MSTORE PUSH1 0x20 ADD PUSH0 ISZERO ISZERO DUP2 MSTORE PUSH1 0x20 ADD PUSH1 0x60 DUP2 MSTORE POP SWAP1 JUMP JUMPDEST PUSH0 DUP3 DUP2 MSTORE PUSH1 0x5 PUSH1 0x20 MSTORE PUSH1 0x40 SWAP1 DUP2 SWAP1 KECCAK256 DUP2 MLOAD PUSH2 0x140 DUP2 ADD SWAP1 SWAP3 MSTORE DUP1 SLOAD DUP3 SWAP1 DUP3 SWAP1 PUSH2 0xC78 SWAP1 PUSH2 0x1EDE JUMP JUMPDEST DUP1 PUSH1 0x1F ADD PUSH1 0x20 DUP1 SWAP2 DIV MUL PUSH1 0x20 ADD PUSH1 0x40 MLOAD SWAP1 DUP2 ADD PUSH1 0x40 MSTORE DUP1 SWAP3 SWAP2 SWAP1 DUP2 DUP2 MSTORE PUSH1 0x20 ADD DUP3 DUP1 SLOAD PUSH2 0xCA4 SWAP1 PUSH2 0x1EDE JUMP JUMPDEST DUP1 ISZERO PUSH2 0xCEF JUMPI DUP1 PUSH1 0x1F LT PUSH2 0xCC6 JUMPI PUSH2 0x100 DUP1 DUP4 SLOAD DIV MUL DUP4 MSTORE SWAP2 PUSH1 0x20 ADD SWAP2 PUSH2 0xCEF JUMP JUMPDEST DUP3 ADD SWAP2 SWAP1 PUSH0 MSTORE PUSH1 0x20 PUSH0 KECCAK256 SWAP1 JUMPDEST DUP2 SLOAD DUP2 MSTORE SWAP1 PUSH1 0x1 ADD SWAP1 PUSH1 0x20 ADD DUP1 DUP4 GT PUSH2 0xCD2 JUMPI DUP3 SWAP1 SUB PUSH1 0x1F AND DUP3 ADD SWAP2 JUMPDEST POP POP POP SWAP2 DUP4 MSTORE POP POP PUSH1 0x1 DUP3 ADD SLOAD PUSH1 0x1 PUSH1 0x1 PUSH1 0xA0 SHL SUB SWAP1 DUP2 AND PUSH1 0x20 DUP4 ADD MSTORE PUSH1 0x2 DUP4 ADD SLOAD AND PUSH1 0x40 DUP3 ADD MSTORE PUSH1 0x3 DUP3 ADD SLOAD PUSH1 0x60 DUP3 ADD MSTORE PUSH1 0x4 DUP3 ADD SLOAD PUSH1 0x80 DUP3 ADD MSTORE PUSH1 0x5 DUP3 ADD SLOAD PUSH1 0xA0 DUP3 ADD MSTORE PUSH1 0x6 DUP3 ADD SLOAD PUSH1 0xC0 DUP3 ADD MSTORE PUSH1 0x7 DUP3 ADD SLOAD PUSH1 0xFF DUP1 DUP3 AND ISZERO ISZERO PUSH1 0xE0 DUP5 ADD MSTORE PUSH2 0x100 SWAP2 DUP3 SWAP1 DIV AND ISZERO ISZERO SWAP1 DUP3 ADD MSTORE PUSH1 0x8 DUP3 ADD DUP1 SLOAD PUSH2 0x120 SWAP1 SWAP3 ADD SWAP2 PUSH2 0xD74 SWAP1 PUSH2 0x1EDE JUMP JUMPDEST DUP1 PUSH1 0x1F ADD PUSH1 0x20 DUP1 SWAP2 DIV MUL PUSH1 0x20 ADD PUSH1 0x40 MLOAD SWAP1 DUP2 ADD PUSH1 0x40 MSTORE DUP1 SWAP3 SWAP2 SWAP1 DUP2 DUP2 MSTORE PUSH1 0x20 ADD DUP3 DUP1 SLOAD PUSH2 0xDA0 SWAP1 PUSH2 0x1EDE JUMP JUMPDEST DUP1 ISZERO PUSH2 0xDEB JUMPI DUP1 PUSH1 0x1F LT PUSH2 0xDC2 JUMPI PUSH2 0x100 DUP1 DUP4 SLOAD DIV MUL DUP4 MSTORE SWAP2 PUSH1 0x20 ADD SWAP2 PUSH2 0xDEB JUMP JUMPDEST DUP3 ADD SWAP2 SWAP1 PUSH0 MSTORE PUSH1 0x20 PUSH0 KECCAK256 SWAP1 JUMPDEST DUP2 SLOAD DUP2 MSTORE SWAP1 PUSH1 0x1 ADD SWAP1 PUSH1 0x20 ADD DUP1 DUP4 GT PUSH2 0xDCE JUMPI DUP3 SWAP1 SUB PUSH1 0x1F AND DUP3 ADD SWAP2 JUMPDEST POP POP POP POP POP DUP2 MSTORE POP POP SWAP1 POP SWAP2 SWAP1 POP JUMP JUMPDEST PUSH2 0xE03 PUSH2 0x17CD JUMP JUMPDEST PUSH1 0x2 SLOAD PUSH1 0x40 MLOAD PUSH4 0xEF70D753 PUSH1 0xE0 SHL DUP2 MSTORE PUSH1 0x1 PUSH1 0x1 PUSH1 0xA0 SHL SUB SWAP1 SWAP2 AND SWAP1 PUSH4 0xEF70D753 SWAP1 PUSH2 0xE3D SWAP1 DUP14 SWAP1 DUP14 SWAP1 DUP14 SWAP1 DUP14 SWAP1 DUP13 SWAP1 DUP10 SWAP1 PUSH1 0x4 ADD PUSH2 0x2174 JUMP JUMPDEST PUSH1 0x20 PUSH1 0x40 MLOAD DUP1 DUP4 SUB DUP2 PUSH0 DUP8 GAS CALL ISZERO DUP1 ISZERO PUSH2 0xE59 JUMPI RETURNDATASIZE PUSH0 DUP1 RETURNDATACOPY RETURNDATASIZE PUSH0 REVERT JUMPDEST POP POP POP POP PUSH1 0x40 MLOAD RETURNDATASIZE PUSH1 0x1F NOT PUSH1 0x1F DUP3 ADD AND DUP3 ADD DUP1 PUSH1 0x40 MSTORE POP DUP2 ADD SWAP1 PUSH2 0xE7D SWAP2 SWAP1 PUSH2 0x20EB JUMP JUMPDEST POP PUSH1 0x3 SLOAD PUSH1 0x40 MLOAD PUSH4 0x53A49D9 PUSH1 0xE5 SHL DUP2 MSTORE PUSH1 0x1 PUSH1 0x1 PUSH1 0xA0 SHL SUB SWAP1 SWAP2 AND SWAP1 PUSH4 0xA7493B20 SWAP1 PUSH2 0xEB4 SWAP1 DUP14 SWAP1 DUP12 SWAP1 DUP12 SWAP1 DUP8 SWAP1 PUSH1 0x4 ADD PUSH2 0x21D4 JUMP JUMPDEST PUSH0 PUSH1 0x40 MLOAD DUP1 DUP4 SUB DUP2 PUSH0 DUP8 DUP1 EXTCODESIZE ISZERO DUP1 ISZERO PUSH2 0xECB JUMPI PUSH0 DUP1 REVERT JUMPDEST POP GAS CALL ISZERO DUP1 ISZERO PUSH2 0xEDD JUMPI RETURNDATASIZE PUSH0 DUP1 RETURNDATACOPY RETURNDATASIZE PUSH0 REVERT JUMPDEST POP POP PUSH1 0x4 DUP1 SLOAD PUSH1 0x40 MLOAD PUSH4 0x21D14C9 PUSH1 0xE6 SHL DUP2 MSTORE PUSH1 0x1 PUSH1 0x1 PUSH1 0xA0 SHL SUB SWAP1 SWAP2 AND SWAP4 POP PUSH4 0x87453240 SWAP3 POP PUSH2 0xF16 SWAP2 DUP15 SWAP2 DUP10 SWAP2 DUP10 SWAP2 DUP10 SWAP2 ADD PUSH2 0x225E JUMP JUMPDEST PUSH0 PUSH1 0x40 MLOAD DUP1 DUP4 SUB DUP2 PUSH0 DUP8 DUP1 EXTCODESIZE ISZERO DUP1 ISZERO PUSH2 0xF2D JUMPI PUSH0 DUP1 REVERT JUMPDEST POP GAS CALL ISZERO DUP1 ISZERO PUSH2 0xF3F JUMPI RETURNDATASIZE PUSH0 DUP1 RETURNDATACOPY RETURNDATASIZE PUSH0 REVERT JUMPDEST POP POP POP POP POP POP POP POP POP POP POP POP POP POP JUMP JUMPDEST PUSH1 0x4 DUP1 SLOAD PUSH1 0x40 MLOAD PUSH4 0x712AFFB3 PUSH1 0xE0 SHL DUP2 MSTORE PUSH1 0x1 PUSH1 0x1 PUSH1 0xA0 SHL SUB SWAP1 SWAP2 AND SWAP2 PUSH4 0x712AFFB3 SWAP2 CALLVALUE SWAP2 PUSH2 0xF80 SWAP2 DUP7 SWAP2 ADD PUSH2 0x2306 JUMP JUMPDEST PUSH0 PUSH1 0x40 MLOAD DUP1 DUP4 SUB DUP2 DUP6 DUP9 DUP1 EXTCODESIZE ISZERO DUP1 ISZERO PUSH2 0xF97 JUMPI PUSH0 DUP1 REVERT JUMPDEST POP GAS CALL ISZERO DUP1 ISZERO PUSH2 0xFA9 JUMPI RETURNDATASIZE PUSH0 DUP1 RETURNDATACOPY RETURNDATASIZE PUSH0 REVERT JUMPDEST POP POP POP POP POP POP JUMP JUMPDEST PUSH0 DUP1 PUSH1 0x6 DUP4 PUSH1 0x40 MLOAD PUSH2 0xFC3 SWAP2 SWAP1 PUSH2 0x2318 JUMP JUMPDEST SWAP1 DUP2 MSTORE PUSH1 0x40 MLOAD SWAP1 DUP2 SWAP1 SUB PUSH1 0x20 ADD SWAP1 KECCAK256 SLOAD SWAP1 POP DUP1 ISZERO DUP1 ISZERO SWAP1 PUSH2 0xFF4 JUMPI POP PUSH0 DUP2 DUP2 MSTORE PUSH1 0x5 PUSH1 0x20 MSTORE PUSH1 0x40 SWAP1 KECCAK256 PUSH1 0x7 ADD SLOAD PUSH1 0xFF AND JUMPDEST SWAP4 SWAP3 POP POP POP JUMP JUMPDEST PUSH2 0x1003 PUSH2 0x17CD JUMP JUMPDEST PUSH0 DUP3 DUP2 MSTORE PUSH1 0x5 PUSH1 0x20 MSTORE PUSH1 0x40 SWAP1 KECCAK256 PUSH1 0x7 DUP2 ADD SLOAD PUSH1 0xFF AND PUSH2 0x1034 JUMPI PUSH1 0x40 MLOAD PUSH3 0x461BCD PUSH1 0xE5 SHL DUP2 MSTORE PUSH1 0x4 ADD PUSH2 0x78F SWAP1 PUSH2 0x1F16 JUMP JUMPDEST PUSH1 0x8 DUP2 ADD PUSH2 0x1042 DUP4 DUP3 PUSH2 0x237D JUMP JUMPDEST POP PUSH1 0x40 MLOAD PUSH2 0x1051 SWAP1 DUP3 SWAP1 PUSH2 0x2102 JUMP JUMPDEST PUSH1 0x40 MLOAD DUP1 SWAP2 SUB SWAP1 KECCAK256 DUP4 PUSH32 0xD730A78D85F1962D39C2DAB25D2BD633EE22E730EAA382FA2C70243DB65AD854 DUP5 PUSH1 0x40 MLOAD PUSH2 0x1089 SWAP2 SWAP1 PUSH2 0x2306 JUMP JUMPDEST PUSH1 0x40 MLOAD DUP1 SWAP2 SUB SWAP1 LOG3 POP POP POP JUMP JUMPDEST PUSH2 0x109E PUSH2 0x17CD JUMP JUMPDEST SELFBALANCE DUP1 PUSH2 0x10E3 JUMPI PUSH1 0x40 MLOAD PUSH3 0x461BCD PUSH1 0xE5 SHL DUP2 MSTORE PUSH1 0x20 PUSH1 0x4 DUP3 ADD MSTORE PUSH1 0x14 PUSH1 0x24 DUP3 ADD MSTORE PUSH20 0x4E6F2066756E647320746F207769746864726177 PUSH1 0x60 SHL PUSH1 0x44 DUP3 ADD MSTORE PUSH1 0x64 ADD PUSH2 0x78F JUMP JUMPDEST PUSH0 DUP1 SLOAD PUSH1 0x40 MLOAD PUSH1 0x1 PUSH1 0x1 PUSH1 0xA0 SHL SUB SWAP1 SWAP2 AND SWAP2 DUP4 ISZERO PUSH2 0x8FC MUL SWAP2 DUP5 SWAP2 DUP2 DUP2 DUP2 DUP6 DUP9 DUP9 CALL SWAP4 POP POP POP POP ISZERO DUP1 ISZERO PUSH2 0x1119 JUMPI RETURNDATASIZE PUSH0 DUP1 RETURNDATACOPY RETURNDATASIZE PUSH0 REVERT JUMPDEST POP POP JUMP JUMPDEST PUSH0 DUP2 DUP2 MSTORE PUSH1 0x5 PUSH1 0x20 MSTORE PUSH1 0x40 SWAP1 KECCAK256 PUSH1 0x7 DUP2 ADD SLOAD PUSH1 0xFF AND PUSH2 0x114E JUMPI PUSH1 0x40 MLOAD PUSH3 0x461BCD PUSH1 0xE5 SHL DUP2 MSTORE PUSH1 0x4 ADD PUSH2 0x78F SWAP1 PUSH2 0x1F16 JUMP JUMPDEST PUSH1 0x1 DUP2 ADD SLOAD PUSH1 0x1 PUSH1 0x1 PUSH1 0xA0 SHL SUB AND CALLER EQ DUP1 PUSH2 0x1175 JUMPI POP PUSH1 0x2 DUP2 ADD SLOAD PUSH1 0x1 PUSH1 0x1 PUSH1 0xA0 SHL SUB AND CALLER EQ JUMPDEST DUP1 PUSH2 0x1189 JUMPI POP PUSH0 SLOAD PUSH1 0x1 PUSH1 0x1 PUSH1 0xA0 SHL SUB AND CALLER EQ JUMPDEST PUSH2 0x11D5 JUMPI PUSH1 0x40 MLOAD PUSH3 0x461BCD PUSH1 0xE5 SHL DUP2 MSTORE PUSH1 0x20 PUSH1 0x4 DUP3 ADD MSTORE PUSH1 0x1F PUSH1 0x24 DUP3 ADD MSTORE PUSH32 0x4E6F7420617574686F72697A656420746F2063616E63656C20657363726F7700 PUSH1 0x44 DUP3 ADD MSTORE PUSH1 0x64 ADD PUSH2 0x78F JUMP JUMPDEST PUSH1 0x7 DUP2 ADD DUP1 SLOAD PUSH1 0xFF NOT AND SWAP1 SSTORE PUSH1 0x40 MLOAD PUSH1 0x6 SWAP1 PUSH2 0x11F2 SWAP1 DUP4 SWAP1 PUSH2 0x2102 JUMP JUMPDEST SWAP1 DUP2 MSTORE PUSH1 0x40 MLOAD SWAP1 DUP2 SWAP1 SUB PUSH1 0x20 ADD DUP2 KECCAK256 PUSH0 SWAP1 SSTORE PUSH1 0x1 DUP3 ADD SLOAD PUSH1 0x1 PUSH1 0x1 PUSH1 0xA0 SHL SUB AND SWAP1 PUSH2 0x121E SWAP1 DUP4 SWAP1 PUSH2 0x2102 JUMP JUMPDEST PUSH1 0x40 MLOAD SWAP1 DUP2 SWAP1 SUB DUP2 KECCAK256 SWAP1 DUP5 SWAP1 PUSH32 0x8D153AB032DEC064383D94D3B6CC793020B90D5270C75A83B516BDC996716C58 SWAP1 PUSH0 SWAP1 LOG4 POP POP JUMP JUMPDEST PUSH2 0x125B PUSH2 0x17CD JUMP JUMPDEST PUSH1 0x1 PUSH1 0x1 PUSH1 0xA0 SHL SUB DUP2 AND PUSH2 0x1284 JUMPI PUSH1 0x40 MLOAD PUSH4 0x1E4FBDF7 PUSH1 0xE0 SHL DUP2 MSTORE PUSH0 PUSH1 0x4 DUP3 ADD MSTORE PUSH1 0x24 ADD PUSH2 0x78F JUMP JUMPDEST PUSH2 0x128D DUP2 PUSH2 0x17F9 JUMP JUMPDEST POP JUMP JUMPDEST PUSH0 PUSH1 0x6 DUP3 PUSH1 0x40 MLOAD PUSH2 0x12A1 SWAP2 SWAP1 PUSH2 0x2318 JUMP JUMPDEST SWAP1 DUP2 MSTORE PUSH1 0x20 ADD PUSH1 0x40 MLOAD DUP1 SWAP2 SUB SWAP1 KECCAK256 SLOAD SWAP1 POP SWAP2 SWAP1 POP JUMP JUMPDEST PUSH0 PUSH2 0x12C0 PUSH2 0x17CD JUMP JUMPDEST PUSH1 0x1 PUSH1 0x1 PUSH1 0xA0 SHL SUB DUP6 AND PUSH2 0x130E JUMPI PUSH1 0x40 MLOAD PUSH3 0x461BCD PUSH1 0xE5 SHL DUP2 MSTORE PUSH1 0x20 PUSH1 0x4 DUP3 ADD MSTORE PUSH1 0x15 PUSH1 0x24 DUP3 ADD MSTORE PUSH21 0x496E76616C69642062757965722061646472657373 PUSH1 0x58 SHL PUSH1 0x44 DUP3 ADD MSTORE PUSH1 0x64 ADD PUSH2 0x78F JUMP JUMPDEST PUSH0 DUP5 GT PUSH2 0x1369 JUMPI PUSH1 0x40 MLOAD PUSH3 0x461BCD PUSH1 0xE5 SHL DUP2 MSTORE PUSH1 0x20 PUSH1 0x4 DUP3 ADD MSTORE PUSH1 0x24 DUP1 DUP3 ADD MSTORE PUSH32 0x53686172657320616D6F756E74206D7573742062652067726561746572207468 PUSH1 0x44 DUP3 ADD MSTORE PUSH4 0x616E203 PUSH1 0xE4 SHL PUSH1 0x64 DUP3 ADD MSTORE PUSH1 0x84 ADD PUSH2 0x78F JUMP JUMPDEST TIMESTAMP DUP4 GT PUSH2 0x13B8 JUMPI PUSH1 0x40 MLOAD PUSH3 0x461BCD PUSH1 0xE5 SHL DUP2 MSTORE PUSH1 0x20 PUSH1 0x4 DUP3 ADD MSTORE PUSH1 0x1E PUSH1 0x24 DUP3 ADD MSTORE PUSH32 0x446561646C696E65206D75737420626520696E20746865206675747572650000 PUSH1 0x44 DUP3 ADD MSTORE PUSH1 0x64 ADD PUSH2 0x78F JUMP JUMPDEST PUSH0 DUP1 SHL PUSH1 0x6 DUP8 PUSH1 0x40 MLOAD PUSH2 0x13CB SWAP2 SWAP1 PUSH2 0x2318 JUMP JUMPDEST SWAP1 DUP2 MSTORE PUSH1 0x20 ADD PUSH1 0x40 MLOAD DUP1 SWAP2 SUB SWAP1 KECCAK256 SLOAD EQ PUSH2 0x1432 JUMPI PUSH1 0x40 MLOAD PUSH3 0x461BCD PUSH1 0xE5 SHL DUP2 MSTORE PUSH1 0x20 PUSH1 0x4 DUP3 ADD MSTORE PUSH1 0x22 PUSH1 0x24 DUP3 ADD MSTORE PUSH32 0x50726F706572747920616C726561647920686173206163746976652065736372 PUSH1 0x44 DUP3 ADD MSTORE PUSH2 0x6F77 PUSH1 0xF0 SHL PUSH1 0x64 DUP3 ADD MSTORE PUSH1 0x84 ADD PUSH2 0x78F JUMP JUMPDEST PUSH1 0x3 SLOAD PUSH1 0x40 MLOAD PUSH4 0x76929DA1 PUSH1 0xE1 SHL DUP2 MSTORE PUSH0 SWAP2 PUSH1 0x1 PUSH1 0x1 PUSH1 0xA0 SHL SUB AND SWAP1 PUSH4 0xED253B42 SWAP1 PUSH2 0x1462 SWAP1 DUP11 SWAP1 PUSH1 0x4 ADD PUSH2 0x2306 JUMP JUMPDEST PUSH0 PUSH1 0x40 MLOAD DUP1 DUP4 SUB DUP2 DUP7 GAS STATICCALL ISZERO DUP1 ISZERO PUSH2 0x147C JUMPI RETURNDATASIZE PUSH0 DUP1 RETURNDATACOPY RETURNDATASIZE PUSH0 REVERT JUMPDEST POP POP POP POP PUSH1 0x40 MLOAD RETURNDATASIZE PUSH0 DUP3 RETURNDATACOPY PUSH1 0x1F RETURNDATASIZE SWAP1 DUP2 ADD PUSH1 0x1F NOT AND DUP3 ADD PUSH1 0x40 MSTORE PUSH2 0x14A3 SWAP2 SWAP1 DUP2 ADD SWAP1 PUSH2 0x200A JUMP JUMPDEST SWAP1 POP PUSH0 DUP2 PUSH1 0x20 ADD MLOAD GT PUSH2 0x14F8 JUMPI PUSH1 0x40 MLOAD PUSH3 0x461BCD PUSH1 0xE5 SHL DUP2 MSTORE PUSH1 0x20 PUSH1 0x4 DUP3 ADD MSTORE PUSH1 0x1C PUSH1 0x24 DUP3 ADD MSTORE PUSH32 0x50726F70657274792073686172657320646F206E6F7420657869737400000000 PUSH1 0x44 DUP3 ADD MSTORE PUSH1 0x64 ADD PUSH2 0x78F JUMP JUMPDEST DUP1 PUSH1 0x60 ADD MLOAD PUSH2 0x1549 JUMPI PUSH1 0x40 MLOAD PUSH3 0x461BCD PUSH1 0xE5 SHL DUP2 MSTORE PUSH1 0x20 PUSH1 0x4 DUP3 ADD MSTORE PUSH1 0x1E PUSH1 0x24 DUP3 ADD MSTORE PUSH32 0x50726F70657274792073686172657320617265206E6F74206163746976650000 PUSH1 0x44 DUP3 ADD MSTORE PUSH1 0x64 ADD PUSH2 0x78F JUMP JUMPDEST DUP1 PUSH1 0x20 ADD MLOAD DUP6 GT ISZERO PUSH2 0x159D JUMPI PUSH1 0x40 MLOAD PUSH3 0x461BCD PUSH1 0xE5 SHL DUP2 MSTORE PUSH1 0x20 PUSH1 0x4 DUP3 ADD MSTORE PUSH1 0x1B PUSH1 0x24 DUP3 ADD MSTORE PUSH32 0x4E6F7420656E6F7567682073686172657320617661696C61626C650000000000 PUSH1 0x44 DUP3 ADD MSTORE PUSH1 0x64 ADD PUSH2 0x78F JUMP JUMPDEST PUSH0 DUP2 PUSH1 0x40 ADD MLOAD DUP7 PUSH2 0x15AE SWAP2 SWAP1 PUSH2 0x244D JUMP JUMPDEST SWAP1 POP PUSH0 DUP9 DUP9 DUP9 TIMESTAMP PUSH1 0x7 SLOAD PUSH1 0x40 MLOAD PUSH1 0x20 ADD PUSH2 0x15CC SWAP6 SWAP5 SWAP4 SWAP3 SWAP2 SWAP1 PUSH2 0x246A JUMP JUMPDEST PUSH1 0x40 DUP1 MLOAD PUSH1 0x1F NOT DUP2 DUP5 SUB ADD DUP2 MSTORE SWAP2 SWAP1 MSTORE DUP1 MLOAD PUSH1 0x20 SWAP1 SWAP2 ADD KECCAK256 PUSH1 0x7 DUP1 SLOAD SWAP2 SWAP3 POP PUSH0 PUSH2 0x15F5 DUP4 PUSH2 0x24B5 JUMP JUMPDEST SWAP2 SWAP1 POP SSTORE POP PUSH1 0x40 MLOAD DUP1 PUSH2 0x140 ADD PUSH1 0x40 MSTORE DUP1 DUP11 DUP2 MSTORE PUSH1 0x20 ADD DUP10 PUSH1 0x1 PUSH1 0x1 PUSH1 0xA0 SHL SUB AND DUP2 MSTORE PUSH1 0x20 ADD DUP5 PUSH1 0x80 ADD MLOAD PUSH1 0x1 PUSH1 0x1 PUSH1 0xA0 SHL SUB AND DUP2 MSTORE PUSH1 0x20 ADD DUP4 DUP2 MSTORE PUSH1 0x20 ADD DUP9 DUP2 MSTORE PUSH1 0x20 ADD TIMESTAMP DUP2 MSTORE PUSH1 0x20 ADD DUP8 DUP2 MSTORE PUSH1 0x20 ADD PUSH1 0x1 ISZERO ISZERO DUP2 MSTORE PUSH1 0x20 ADD PUSH0 ISZERO ISZERO DUP2 MSTORE PUSH1 0x20 ADD DUP7 DUP2 MSTORE POP PUSH1 0x5 PUSH0 DUP4 DUP2 MSTORE PUSH1 0x20 ADD SWAP1 DUP2 MSTORE PUSH1 0x20 ADD PUSH0 KECCAK256 PUSH0 DUP3 ADD MLOAD DUP2 PUSH0 ADD SWAP1 DUP2 PUSH2 0x167F SWAP2 SWAP1 PUSH2 0x237D JUMP JUMPDEST POP PUSH1 0x20 DUP3 ADD MLOAD PUSH1 0x1 DUP3 ADD DUP1 SLOAD PUSH1 0x1 PUSH1 0x1 PUSH1 0xA0 SHL SUB SWAP3 DUP4 AND PUSH1 0x1 PUSH1 0x1 PUSH1 0xA0 SHL SUB NOT SWAP2 DUP3 AND OR SWAP1 SWAP2 SSTORE PUSH1 0x40 DUP5 ADD MLOAD PUSH1 0x2 DUP5 ADD DUP1 SLOAD SWAP2 SWAP1 SWAP4 AND SWAP2 AND OR SWAP1 SSTORE PUSH1 0x60 DUP3 ADD MLOAD PUSH1 0x3 DUP3 ADD SSTORE PUSH1 0x80 DUP3 ADD MLOAD PUSH1 0x4 DUP3 ADD SSTORE PUSH1 0xA0 DUP3 ADD MLOAD PUSH1 0x5 DUP3 ADD SSTORE PUSH1 0xC0 DUP3 ADD MLOAD PUSH1 0x6 DUP3 ADD SSTORE PUSH1 0xE0 DUP3 ADD MLOAD PUSH1 0x7 DUP3 ADD DUP1 SLOAD PUSH2 0x100 DUP1 DUP7 ADD MLOAD ISZERO ISZERO MUL PUSH2 0xFF00 NOT SWAP4 ISZERO ISZERO SWAP4 SWAP1 SWAP4 AND PUSH2 0xFFFF NOT SWAP1 SWAP2 AND OR SWAP2 SWAP1 SWAP2 OR SWAP1 SSTORE PUSH2 0x120 DUP3 ADD MLOAD PUSH1 0x8 DUP3 ADD SWAP1 PUSH2 0x1725 SWAP1 DUP3 PUSH2 0x237D JUMP JUMPDEST POP SWAP1 POP POP DUP1 PUSH1 0x6 DUP11 PUSH1 0x40 MLOAD PUSH2 0x173A SWAP2 SWAP1 PUSH2 0x2318 JUMP JUMPDEST SWAP1 DUP2 MSTORE PUSH1 0x20 ADD PUSH1 0x40 MLOAD DUP1 SWAP2 SUB SWAP1 KECCAK256 DUP2 SWAP1 SSTORE POP DUP8 PUSH1 0x1 PUSH1 0x1 PUSH1 0xA0 SHL SUB AND DUP10 PUSH1 0x40 MLOAD PUSH2 0x1764 SWAP2 SWAP1 PUSH2 0x2318 JUMP JUMPDEST PUSH1 0x40 DUP1 MLOAD SWAP2 DUP3 SWAP1 SUB DUP3 KECCAK256 PUSH1 0x80 DUP1 DUP9 ADD MLOAD PUSH1 0x1 PUSH1 0x1 PUSH1 0xA0 SHL SUB AND DUP5 MSTORE PUSH1 0x20 DUP5 ADD DUP8 SWAP1 MSTORE SWAP2 DUP4 ADD DUP12 SWAP1 MSTORE PUSH1 0x60 DUP4 ADD DUP11 SWAP1 MSTORE SWAP2 DUP5 SWAP2 PUSH32 0x5AD99066C1DD7D8FD37A1D7D02B5F7C6A06B2C95AA02DDDCD83E1583A2228184 SWAP2 ADD PUSH1 0x40 MLOAD DUP1 SWAP2 SUB SWAP1 LOG4 SWAP9 SWAP8 POP POP POP POP POP POP POP POP JUMP JUMPDEST PUSH0 SLOAD PUSH1 0x1 PUSH1 0x1 PUSH1 0xA0 SHL SUB AND CALLER EQ PUSH2 0x89E JUMPI PUSH1 0x40 MLOAD PUSH4 0x118CDAA7 PUSH1 0xE0 SHL DUP2 MSTORE CALLER PUSH1 0x4 DUP3 ADD MSTORE PUSH1 0x24 ADD PUSH2 0x78F JUMP JUMPDEST PUSH0 DUP1 SLOAD PUSH1 0x1 PUSH1 0x1 PUSH1 0xA0 SHL SUB DUP4 DUP2 AND PUSH1 0x1 PUSH1 0x1 PUSH1 0xA0 SHL SUB NOT DUP4 AND DUP2 OR DUP5 SSTORE PUSH1 0x40 MLOAD SWAP2 SWAP1 SWAP3 AND SWAP3 DUP4 SWAP2 PUSH32 0x8BE0079C531659141344CD1FD0A4F28419497F9722A3DAAFE3B4186F6B6457E0 SWAP2 SWAP1 LOG3 POP POP JUMP JUMPDEST PUSH0 PUSH1 0x20 DUP3 DUP5 SUB SLT ISZERO PUSH2 0x1858 JUMPI PUSH0 DUP1 REVERT JUMPDEST POP CALLDATALOAD SWAP2 SWAP1 POP JUMP JUMPDEST PUSH0 JUMPDEST DUP4 DUP2 LT ISZERO PUSH2 0x1879 JUMPI DUP2 DUP2 ADD MLOAD DUP4 DUP3 ADD MSTORE PUSH1 0x20 ADD PUSH2 0x1861 JUMP JUMPDEST POP POP PUSH0 SWAP2 ADD MSTORE JUMP JUMPDEST PUSH0 DUP2 MLOAD DUP1 DUP5 MSTORE PUSH2 0x1898 DUP2 PUSH1 0x20 DUP7 ADD PUSH1 0x20 DUP7 ADD PUSH2 0x185F JUMP JUMPDEST PUSH1 0x1F ADD PUSH1 0x1F NOT AND SWAP3 SWAP1 SWAP3 ADD PUSH1 0x20 ADD SWAP3 SWAP2 POP POP JUMP JUMPDEST PUSH0 PUSH2 0x140 DUP1 DUP4 MSTORE PUSH2 0x18BF DUP2 DUP5 ADD DUP15 PUSH2 0x1881 JUMP JUMPDEST PUSH1 0x1 PUSH1 0x1 PUSH1 0xA0 SHL SUB DUP14 DUP2 AND PUSH1 0x20 DUP7 ADD MSTORE DUP13 AND PUSH1 0x40 DUP6 ADD MSTORE PUSH1 0x60 DUP5 ADD DUP12 SWAP1 MSTORE PUSH1 0x80 DUP5 ADD DUP11 SWAP1 MSTORE PUSH1 0xA0 DUP5 ADD DUP10 SWAP1 MSTORE PUSH1 0xC0 DUP5 ADD DUP9 SWAP1 MSTORE DUP7 ISZERO ISZERO PUSH1 0xE0 DUP6 ADD MSTORE DUP6 ISZERO ISZERO PUSH2 0x100 DUP6 ADD MSTORE DUP4 DUP2 SUB PUSH2 0x120 DUP6 ADD MSTORE SWAP1 POP PUSH2 0x1918 DUP2 DUP6 PUSH2 0x1881 JUMP JUMPDEST SWAP14 SWAP13 POP POP POP POP POP POP POP POP POP POP POP POP POP JUMP JUMPDEST PUSH1 0x1 PUSH1 0x1 PUSH1 0xA0 SHL SUB DUP2 AND DUP2 EQ PUSH2 0x128D JUMPI PUSH0 DUP1 REVERT JUMPDEST DUP1 CALLDATALOAD PUSH2 0x1948 DUP2 PUSH2 0x1929 JUMP JUMPDEST SWAP2 SWAP1 POP JUMP JUMPDEST PUSH0 DUP1 PUSH0 PUSH1 0x60 DUP5 DUP7 SUB SLT ISZERO PUSH2 0x195F JUMPI PUSH0 DUP1 REVERT JUMPDEST DUP4 CALLDATALOAD PUSH2 0x196A DUP2 PUSH2 0x1929 JUMP JUMPDEST SWAP3 POP PUSH1 0x20 DUP5 ADD CALLDATALOAD PUSH2 0x197A DUP2 PUSH2 0x1929 JUMP JUMPDEST SWAP2 POP PUSH1 0x40 DUP5 ADD CALLDATALOAD PUSH2 0x198A DUP2 PUSH2 0x1929 JUMP JUMPDEST DUP1 SWAP2 POP POP SWAP3 POP SWAP3 POP SWAP3 JUMP JUMPDEST PUSH1 0x20 DUP2 MSTORE PUSH0 DUP3 MLOAD PUSH2 0x140 DUP1 PUSH1 0x20 DUP6 ADD MSTORE PUSH2 0x19B3 PUSH2 0x160 DUP6 ADD DUP4 PUSH2 0x1881 JUMP JUMPDEST SWAP2 POP PUSH1 0x20 DUP6 ADD MLOAD PUSH2 0x19CF PUSH1 0x40 DUP7 ADD DUP3 PUSH1 0x1 PUSH1 0x1 PUSH1 0xA0 SHL SUB AND SWAP1 MSTORE JUMP JUMPDEST POP PUSH1 0x40 DUP6 ADD MLOAD PUSH1 0x1 PUSH1 0x1 PUSH1 0xA0 SHL SUB DUP2 AND PUSH1 0x60 DUP7 ADD MSTORE POP PUSH1 0x60 DUP6 ADD MLOAD PUSH1 0x80 DUP6 ADD MSTORE PUSH1 0x80 DUP6 ADD MLOAD PUSH1 0xA0 DUP6 ADD MSTORE PUSH1 0xA0 DUP6 ADD MLOAD PUSH1 0xC0 DUP6 ADD MSTORE PUSH1 0xC0 DUP6 ADD MLOAD PUSH1 0xE0 DUP6 ADD MSTORE PUSH1 0xE0 DUP6 ADD MLOAD PUSH2 0x100 PUSH2 0x1A22 DUP2 DUP8 ADD DUP4 ISZERO ISZERO SWAP1 MSTORE JUMP JUMPDEST DUP7 ADD MLOAD SWAP1 POP PUSH2 0x120 PUSH2 0x1A37 DUP7 DUP3 ADD DUP4 ISZERO ISZERO SWAP1 MSTORE JUMP JUMPDEST DUP7 ADD MLOAD DUP6 DUP5 SUB PUSH1 0x1F NOT ADD DUP4 DUP8 ADD MSTORE SWAP1 POP PUSH2 0x1A51 DUP4 DUP3 PUSH2 0x1881 JUMP JUMPDEST SWAP7 SWAP6 POP POP POP POP POP POP JUMP JUMPDEST PUSH4 0x4E487B71 PUSH1 0xE0 SHL PUSH0 MSTORE PUSH1 0x41 PUSH1 0x4 MSTORE PUSH1 0x24 PUSH0 REVERT JUMPDEST PUSH1 0x40 MLOAD PUSH1 0xC0 DUP2 ADD PUSH8 0xFFFFFFFFFFFFFFFF DUP2 GT DUP3 DUP3 LT OR ISZERO PUSH2 0x1A92 JUMPI PUSH2 0x1A92 PUSH2 0x1A5B JUMP JUMPDEST PUSH1 0x40 MSTORE SWAP1 JUMP JUMPDEST PUSH1 0x40 MLOAD PUSH1 0x1F DUP3 ADD PUSH1 0x1F NOT AND DUP2 ADD PUSH8 0xFFFFFFFFFFFFFFFF DUP2 GT DUP3 DUP3 LT OR ISZERO PUSH2 0x1AC1 JUMPI PUSH2 0x1AC1 PUSH2 0x1A5B JUMP JUMPDEST PUSH1 0x40 MSTORE SWAP2 SWAP1 POP JUMP JUMPDEST PUSH0 PUSH8 0xFFFFFFFFFFFFFFFF DUP3 GT ISZERO PUSH2 0x1AE2 JUMPI PUSH2 0x1AE2 PUSH2 0x1A5B JUMP JUMPDEST POP PUSH1 0x1F ADD PUSH1 0x1F NOT AND PUSH1 0x20 ADD SWAP1 JUMP JUMPDEST PUSH0 DUP3 PUSH1 0x1F DUP4 ADD SLT PUSH2 0x1AFF JUMPI PUSH0 DUP1 REVERT JUMPDEST DUP2 CALLDATALOAD PUSH2 0x1B12 PUSH2 0x1B0D DUP3 PUSH2 0x1AC9 JUMP JUMPDEST PUSH2 0x1A98 JUMP JUMPDEST DUP2 DUP2 MSTORE DUP5 PUSH1 0x20 DUP4 DUP7 ADD ADD GT ISZERO PUSH2 0x1B26 JUMPI PUSH0 DUP1 REVERT JUMPDEST DUP2 PUSH1 0x20 DUP6 ADD PUSH1 0x20 DUP4 ADD CALLDATACOPY PUSH0 SWAP2 DUP2 ADD PUSH1 0x20 ADD SWAP2 SWAP1 SWAP2 MSTORE SWAP4 SWAP3 POP POP POP JUMP JUMPDEST PUSH0 PUSH8 0xFFFFFFFFFFFFFFFF DUP3 GT ISZERO PUSH2 0x1B5B JUMPI PUSH2 0x1B5B PUSH2 0x1A5B JUMP JUMPDEST POP PUSH1 0x5 SHL PUSH1 0x20 ADD SWAP1 JUMP JUMPDEST PUSH0 DUP3 PUSH1 0x1F DUP4 ADD SLT PUSH2 0x1B74 JUMPI PUSH0 DUP1 REVERT JUMPDEST DUP2 CALLDATALOAD PUSH1 0x20 PUSH2 0x1B84 PUSH2 0x1B0D DUP4 PUSH2 0x1B42 JUMP JUMPDEST DUP3 DUP2 MSTORE PUSH1 0x5 SWAP3 SWAP1 SWAP3 SHL DUP5 ADD DUP2 ADD SWAP2 DUP2 DUP2 ADD SWAP1 DUP7 DUP5 GT ISZERO PUSH2 0x1BA2 JUMPI PUSH0 DUP1 REVERT JUMPDEST DUP3 DUP7 ADD JUMPDEST DUP5 DUP2 LT ISZERO PUSH2 0x1BC6 JUMPI DUP1 CALLDATALOAD PUSH2 0x1BB9 DUP2 PUSH2 0x1929 JUMP JUMPDEST DUP4 MSTORE SWAP2 DUP4 ADD SWAP2 DUP4 ADD PUSH2 0x1BA6 JUMP JUMPDEST POP SWAP7 SWAP6 POP POP POP POP POP POP JUMP JUMPDEST PUSH0 DUP3 PUSH1 0x1F DUP4 ADD SLT PUSH2 0x1BE0 JUMPI PUSH0 DUP1 REVERT JUMPDEST DUP2 CALLDATALOAD PUSH1 0x20 PUSH2 0x1BF0 PUSH2 0x1B0D DUP4 PUSH2 0x1B42 JUMP JUMPDEST DUP3 DUP2 MSTORE PUSH1 0x5 SWAP3 SWAP1 SWAP3 SHL DUP5 ADD DUP2 ADD SWAP2 DUP2 DUP2 ADD SWAP1 DUP7 DUP5 GT ISZERO PUSH2 0x1C0E JUMPI PUSH0 DUP1 REVERT JUMPDEST DUP3 DUP7 ADD JUMPDEST DUP5 DUP2 LT ISZERO PUSH2 0x1BC6 JUMPI DUP1 CALLDATALOAD DUP4 MSTORE SWAP2 DUP4 ADD SWAP2 DUP4 ADD PUSH2 0x1C12 JUMP JUMPDEST PUSH0 DUP3 PUSH1 0x1F DUP4 ADD SLT PUSH2 0x1C38 JUMPI PUSH0 DUP1 REVERT JUMPDEST DUP2 CALLDATALOAD PUSH1 0x20 PUSH2 0x1C48 PUSH2 0x1B0D DUP4 PUSH2 0x1B42 JUMP JUMPDEST DUP3 DUP2 MSTORE PUSH1 0x5 SWAP3 SWAP1 SWAP3 SHL DUP5 ADD DUP2 ADD SWAP2 DUP2 DUP2 ADD SWAP1 DUP7 DUP5 GT ISZERO PUSH2 0x1C66 JUMPI PUSH0 DUP1 REVERT JUMPDEST DUP3 DUP7 ADD JUMPDEST DUP5 DUP2 LT ISZERO PUSH2 0x1BC6 JUMPI DUP1 CALLDATALOAD PUSH8 0xFFFFFFFFFFFFFFFF DUP2 GT ISZERO PUSH2 0x1C89 JUMPI PUSH0 DUP1 DUP2 REVERT JUMPDEST PUSH2 0x1C97 DUP10 DUP7 DUP4 DUP12 ADD ADD PUSH2 0x1AF0 JUMP JUMPDEST DUP5 MSTORE POP SWAP2 DUP4 ADD SWAP2 DUP4 ADD PUSH2 0x1C6A JUMP JUMPDEST PUSH0 DUP1 PUSH0 DUP1 PUSH0 DUP1 PUSH0 DUP1 PUSH0 DUP1 PUSH2 0x140 DUP12 DUP14 SUB SLT ISZERO PUSH2 0x1CBF JUMPI PUSH0 DUP1 REVERT JUMPDEST DUP11 CALLDATALOAD PUSH8 0xFFFFFFFFFFFFFFFF DUP1 DUP3 GT ISZERO PUSH2 0x1CD6 JUMPI PUSH0 DUP1 REVERT JUMPDEST PUSH2 0x1CE2 DUP15 DUP4 DUP16 ADD PUSH2 0x1AF0 JUMP JUMPDEST SWAP12 POP PUSH1 0x20 DUP14 ADD CALLDATALOAD SWAP2 POP DUP1 DUP3 GT ISZERO PUSH2 0x1CF7 JUMPI PUSH0 DUP1 REVERT JUMPDEST PUSH2 0x1D03 DUP15 DUP4 DUP16 ADD PUSH2 0x1AF0 JUMP JUMPDEST SWAP11 POP PUSH1 0x40 DUP14 ADD CALLDATALOAD SWAP10 POP PUSH1 0x60 DUP14 ADD CALLDATALOAD SWAP9 POP PUSH1 0x80 DUP14 ADD CALLDATALOAD SWAP8 POP PUSH1 0xA0 DUP14 ADD CALLDATALOAD SWAP2 POP DUP1 DUP3 GT ISZERO PUSH2 0x1D2D JUMPI PUSH0 DUP1 REVERT JUMPDEST PUSH2 0x1D39 DUP15 DUP4 DUP16 ADD PUSH2 0x1AF0 JUMP JUMPDEST SWAP7 POP PUSH1 0xC0 DUP14 ADD CALLDATALOAD SWAP2 POP DUP1 DUP3 GT ISZERO PUSH2 0x1D4E JUMPI PUSH0 DUP1 REVERT JUMPDEST PUSH2 0x1D5A DUP15 DUP4 DUP16 ADD PUSH2 0x1B65 JUMP JUMPDEST SWAP6 POP PUSH1 0xE0 DUP14 ADD CALLDATALOAD SWAP2 POP DUP1 DUP3 GT ISZERO PUSH2 0x1D6F JUMPI PUSH0 DUP1 REVERT JUMPDEST PUSH2 0x1D7B DUP15 DUP4 DUP16 ADD PUSH2 0x1BD1 JUMP JUMPDEST SWAP5 POP PUSH2 0x100 DUP14 ADD CALLDATALOAD SWAP2 POP DUP1 DUP3 GT ISZERO PUSH2 0x1D91 JUMPI PUSH0 DUP1 REVERT JUMPDEST POP PUSH2 0x1D9E DUP14 DUP3 DUP15 ADD PUSH2 0x1C29 JUMP JUMPDEST SWAP3 POP POP PUSH2 0x1DAE PUSH2 0x120 DUP13 ADD PUSH2 0x193D JUMP JUMPDEST SWAP1 POP SWAP3 SWAP6 SWAP9 SWAP12 SWAP2 SWAP5 SWAP8 SWAP11 POP SWAP3 SWAP6 SWAP9 POP JUMP JUMPDEST PUSH0 PUSH1 0x20 DUP3 DUP5 SUB SLT ISZERO PUSH2 0x1DCF JUMPI PUSH0 DUP1 REVERT JUMPDEST DUP2 CALLDATALOAD PUSH8 0xFFFFFFFFFFFFFFFF DUP2 GT ISZERO PUSH2 0x1DE5 JUMPI PUSH0 DUP1 REVERT JUMPDEST PUSH2 0x1DF1 DUP5 DUP3 DUP6 ADD PUSH2 0x1AF0 JUMP JUMPDEST SWAP5 SWAP4 POP POP POP POP JUMP JUMPDEST PUSH0 DUP1 PUSH1 0x40 DUP4 DUP6 SUB SLT ISZERO PUSH2 0x1E0A JUMPI PUSH0 DUP1 REVERT JUMPDEST DUP3 CALLDATALOAD SWAP2 POP PUSH1 0x20 DUP4 ADD CALLDATALOAD PUSH8 0xFFFFFFFFFFFFFFFF DUP2 GT ISZERO PUSH2 0x1E27 JUMPI PUSH0 DUP1 REVERT JUMPDEST PUSH2 0x1E33 DUP6 DUP3 DUP7 ADD PUSH2 0x1AF0 JUMP JUMPDEST SWAP2 POP POP SWAP3 POP SWAP3 SWAP1 POP JUMP JUMPDEST PUSH0 PUSH1 0x20 DUP3 DUP5 SUB SLT ISZERO PUSH2 0x1E4D JUMPI PUSH0 DUP1 REVERT JUMPDEST DUP2 CALLDATALOAD PUSH2 0xFF4 DUP2 PUSH2 0x1929 JUMP JUMPDEST PUSH0 DUP1 PUSH0 DUP1 PUSH0 PUSH1 0xA0 DUP7 DUP9 SUB SLT ISZERO PUSH2 0x1E6C JUMPI PUSH0 DUP1 REVERT JUMPDEST DUP6 CALLDATALOAD PUSH8 0xFFFFFFFFFFFFFFFF DUP1 DUP3 GT ISZERO PUSH2 0x1E83 JUMPI PUSH0 DUP1 REVERT JUMPDEST PUSH2 0x1E8F DUP10 DUP4 DUP11 ADD PUSH2 0x1AF0 JUMP JUMPDEST SWAP7 POP PUSH1 0x20 DUP9 ADD CALLDATALOAD SWAP2 POP PUSH2 0x1EA1 DUP3 PUSH2 0x1929 JUMP JUMPDEST SWAP1 SWAP5 POP PUSH1 0x40 DUP8 ADD CALLDATALOAD SWAP4 POP PUSH1 0x60 DUP8 ADD CALLDATALOAD SWAP3 POP PUSH1 0x80 DUP8 ADD CALLDATALOAD SWAP1 DUP1 DUP3 GT ISZERO PUSH2 0x1EC4 JUMPI PUSH0 DUP1 REVERT JUMPDEST POP PUSH2 0x1ED1 DUP9 DUP3 DUP10 ADD PUSH2 0x1AF0 JUMP JUMPDEST SWAP2 POP POP SWAP3 SWAP6 POP SWAP3 SWAP6 SWAP1 SWAP4 POP JUMP JUMPDEST PUSH1 0x1 DUP2 DUP2 SHR SWAP1 DUP3 AND DUP1 PUSH2 0x1EF2 JUMPI PUSH1 0x7F DUP3 AND SWAP2 POP JUMPDEST PUSH1 0x20 DUP3 LT DUP2 SUB PUSH2 0x1F10 JUMPI PUSH4 0x4E487B71 PUSH1 0xE0 SHL PUSH0 MSTORE PUSH1 0x22 PUSH1 0x4 MSTORE PUSH1 0x24 PUSH0 REVERT JUMPDEST POP SWAP2 SWAP1 POP JUMP JUMPDEST PUSH1 0x20 DUP1 DUP3 MSTORE PUSH1 0x14 SWAP1 DUP3 ADD MSTORE PUSH20 0x457363726F77206973206E6F7420616374697665 PUSH1 0x60 SHL PUSH1 0x40 DUP3 ADD MSTORE PUSH1 0x60 ADD SWAP1 JUMP JUMPDEST PUSH0 DUP2 SLOAD PUSH2 0x1F50 DUP2 PUSH2 0x1EDE JUMP JUMPDEST DUP1 DUP6 MSTORE PUSH1 0x20 PUSH1 0x1 DUP4 DUP2 AND DUP1 ISZERO PUSH2 0x1F6D JUMPI PUSH1 0x1 DUP2 EQ PUSH2 0x1F87 JUMPI PUSH2 0x1FB2 JUMP JUMPDEST PUSH1 0xFF NOT DUP6 AND DUP9 DUP5 ADD MSTORE DUP4 ISZERO ISZERO PUSH1 0x5 SHL DUP9 ADD DUP4 ADD SWAP6 POP PUSH2 0x1FB2 JUMP JUMPDEST DUP7 PUSH0 MSTORE DUP3 PUSH0 KECCAK256 PUSH0 JUMPDEST DUP6 DUP2 LT ISZERO PUSH2 0x1FAA JUMPI DUP2 SLOAD DUP11 DUP3 ADD DUP7 ADD MSTORE SWAP1 DUP4 ADD SWAP1 DUP5 ADD PUSH2 0x1F8F JUMP JUMPDEST DUP10 ADD DUP5 ADD SWAP7 POP POP JUMPDEST POP POP POP POP POP SWAP3 SWAP2 POP POP JUMP JUMPDEST PUSH1 0x40 DUP2 MSTORE PUSH0 PUSH2 0x1FCF PUSH1 0x40 DUP4 ADD DUP6 PUSH2 0x1F44 JUMP JUMPDEST SWAP1 POP DUP3 PUSH1 0x20 DUP4 ADD MSTORE SWAP4 SWAP3 POP POP POP JUMP JUMPDEST PUSH1 0x20 DUP2 MSTORE PUSH0 PUSH2 0xFF4 PUSH1 0x20 DUP4 ADD DUP5 PUSH2 0x1F44 JUMP JUMPDEST DUP1 MLOAD DUP1 ISZERO ISZERO DUP2 EQ PUSH2 0x1948 JUMPI PUSH0 DUP1 REVERT JUMPDEST DUP1 MLOAD PUSH2 0x1948 DUP2 PUSH2 0x1929 JUMP JUMPDEST PUSH0 PUSH1 0x20 DUP1 DUP4 DUP6 SUB SLT ISZERO PUSH2 0x201B JUMPI PUSH0 DUP1 REVERT JUMPDEST DUP3 MLOAD PUSH8 0xFFFFFFFFFFFFFFFF DUP1 DUP3 GT ISZERO PUSH2 0x2032 JUMPI PUSH0 DUP1 REVERT JUMPDEST SWAP1 DUP5 ADD SWAP1 PUSH1 0xC0 DUP3 DUP8 SUB SLT ISZERO PUSH2 0x2045 JUMPI PUSH0 DUP1 REVERT JUMPDEST PUSH2 0x204D PUSH2 0x1A6F JUMP JUMPDEST DUP3 MLOAD DUP3 DUP2 GT ISZERO PUSH2 0x205B JUMPI PUSH0 DUP1 REVERT JUMPDEST DUP4 ADD SWAP2 POP PUSH1 0x1F DUP3 ADD DUP8 SGT PUSH2 0x206D JUMPI PUSH0 DUP1 REVERT JUMPDEST DUP2 MLOAD PUSH2 0x207B PUSH2 0x1B0D DUP3 PUSH2 0x1AC9 JUMP JUMPDEST DUP2 DUP2 MSTORE DUP9 DUP7 DUP4 DUP7 ADD ADD GT ISZERO PUSH2 0x208E JUMPI PUSH0 DUP1 REVERT JUMPDEST PUSH2 0x209D DUP3 DUP8 DUP4 ADD DUP9 DUP8 ADD PUSH2 0x185F JUMP JUMPDEST DUP3 MSTORE POP DUP3 DUP5 ADD MLOAD DUP5 DUP3 ADD MSTORE PUSH1 0x40 DUP1 DUP5 ADD MLOAD SWAP1 DUP3 ADD MSTORE PUSH2 0x20BE PUSH1 0x60 DUP5 ADD PUSH2 0x1FF0 JUMP JUMPDEST PUSH1 0x60 DUP3 ADD MSTORE PUSH2 0x20CF PUSH1 0x80 DUP5 ADD PUSH2 0x1FFF JUMP JUMPDEST PUSH1 0x80 DUP3 ADD MSTORE PUSH1 0xA0 DUP4 ADD MLOAD PUSH1 0xA0 DUP3 ADD MSTORE DUP1 SWAP5 POP POP POP POP POP SWAP3 SWAP2 POP POP JUMP JUMPDEST PUSH0 PUSH1 0x20 DUP3 DUP5 SUB SLT ISZERO PUSH2 0x20FB JUMPI PUSH0 DUP1 REVERT JUMPDEST POP MLOAD SWAP2 SWAP1 POP JUMP JUMPDEST PUSH0 DUP1 DUP4 SLOAD PUSH2 0x210F DUP2 PUSH2 0x1EDE JUMP JUMPDEST PUSH1 0x1 DUP3 DUP2 AND DUP1 ISZERO PUSH2 0x2127 JUMPI PUSH1 0x1 DUP2 EQ PUSH2 0x213C JUMPI PUSH2 0x2168 JUMP JUMPDEST PUSH1 0xFF NOT DUP5 AND DUP8 MSTORE DUP3 ISZERO ISZERO DUP4 MUL DUP8 ADD SWAP5 POP PUSH2 0x2168 JUMP JUMPDEST DUP8 PUSH0 MSTORE PUSH1 0x20 DUP1 PUSH0 KECCAK256 PUSH0 JUMPDEST DUP6 DUP2 LT ISZERO PUSH2 0x215F JUMPI DUP2 SLOAD DUP11 DUP3 ADD MSTORE SWAP1 DUP5 ADD SWAP1 DUP3 ADD PUSH2 0x2146 JUMP JUMPDEST POP POP POP DUP3 DUP8 ADD SWAP5 POP JUMPDEST POP SWAP3 SWAP7 SWAP6 POP POP POP POP POP POP JUMP JUMPDEST PUSH1 0xC0 DUP2 MSTORE PUSH0 PUSH2 0x2186 PUSH1 0xC0 DUP4 ADD DUP10 PUSH2 0x1881 JUMP JUMPDEST DUP3 DUP2 SUB PUSH1 0x20 DUP5 ADD MSTORE PUSH2 0x2198 DUP2 DUP10 PUSH2 0x1881 JUMP JUMPDEST SWAP1 POP DUP7 PUSH1 0x40 DUP5 ADD MSTORE DUP6 PUSH1 0x60 DUP5 ADD MSTORE DUP3 DUP2 SUB PUSH1 0x80 DUP5 ADD MSTORE PUSH2 0x21B8 DUP2 DUP7 PUSH2 0x1881 JUMP JUMPDEST SWAP2 POP POP PUSH1 0x1 DUP1 PUSH1 0xA0 SHL SUB DUP4 AND PUSH1 0xA0 DUP4 ADD MSTORE SWAP8 SWAP7 POP POP POP POP POP POP POP JUMP JUMPDEST PUSH1 0x80 DUP2 MSTORE PUSH0 PUSH2 0x21E6 PUSH1 0x80 DUP4 ADD DUP8 PUSH2 0x1881 JUMP JUMPDEST PUSH1 0x20 DUP4 ADD SWAP6 SWAP1 SWAP6 MSTORE POP PUSH1 0x40 DUP2 ADD SWAP3 SWAP1 SWAP3 MSTORE PUSH1 0x1 PUSH1 0x1 PUSH1 0xA0 SHL SUB AND PUSH1 0x60 SWAP1 SWAP2 ADD MSTORE SWAP2 SWAP1 POP JUMP JUMPDEST PUSH0 DUP2 MLOAD DUP1 DUP5 MSTORE PUSH1 0x20 DUP1 DUP6 ADD DUP1 DUP2 SWAP7 POP DUP4 PUSH1 0x5 SHL DUP2 ADD SWAP2 POP DUP3 DUP7 ADD PUSH0 JUMPDEST DUP6 DUP2 LT ISZERO PUSH2 0x2251 JUMPI DUP3 DUP5 SUB DUP10 MSTORE PUSH2 0x223F DUP5 DUP4 MLOAD PUSH2 0x1881 JUMP JUMPDEST SWAP9 DUP6 ADD SWAP9 SWAP4 POP SWAP1 DUP5 ADD SWAP1 PUSH1 0x1 ADD PUSH2 0x2227 JUMP JUMPDEST POP SWAP2 SWAP8 SWAP7 POP POP POP POP POP POP POP JUMP JUMPDEST PUSH1 0x80 DUP2 MSTORE PUSH0 PUSH2 0x2270 PUSH1 0x80 DUP4 ADD DUP8 PUSH2 0x1881 JUMP JUMPDEST DUP3 DUP2 SUB PUSH1 0x20 DUP5 DUP2 ADD SWAP2 SWAP1 SWAP2 MSTORE DUP7 MLOAD DUP1 DUP4 MSTORE DUP8 DUP3 ADD SWAP3 DUP3 ADD SWAP1 PUSH0 JUMPDEST DUP2 DUP2 LT ISZERO PUSH2 0x22AF JUMPI DUP5 MLOAD PUSH1 0x1 PUSH1 0x1 PUSH1 0xA0 SHL SUB AND DUP4 MSTORE SWAP4 DUP4 ADD SWAP4 SWAP2 DUP4 ADD SWAP2 PUSH1 0x1 ADD PUSH2 0x228A JUMP JUMPDEST POP POP DUP5 DUP2 SUB PUSH1 0x40 DUP7 ADD MSTORE DUP7 MLOAD DUP1 DUP3 MSTORE SWAP1 DUP3 ADD SWAP3 POP DUP2 DUP8 ADD SWAP1 PUSH0 JUMPDEST DUP2 DUP2 LT ISZERO PUSH2 0x22E5 JUMPI DUP3 MLOAD DUP6 MSTORE SWAP4 DUP4 ADD SWAP4 SWAP2 DUP4 ADD SWAP2 PUSH1 0x1 ADD PUSH2 0x22C9 JUMP JUMPDEST POP POP POP POP DUP3 DUP2 SUB PUSH1 0x60 DUP5 ADD MSTORE PUSH2 0x22FB DUP2 DUP6 PUSH2 0x220B JUMP JUMPDEST SWAP8 SWAP7 POP POP POP POP POP POP POP JUMP JUMPDEST PUSH1 0x20 DUP2 MSTORE PUSH0 PUSH2 0xFF4 PUSH1 0x20 DUP4 ADD DUP5 PUSH2 0x1881 JUMP JUMPDEST PUSH0 DUP3 MLOAD PUSH2 0x2329 DUP2 DUP5 PUSH1 0x20 DUP8 ADD PUSH2 0x185F JUMP JUMPDEST SWAP2 SWAP1 SWAP2 ADD SWAP3 SWAP2 POP POP JUMP JUMPDEST PUSH1 0x1F DUP3 GT ISZERO PUSH2 0x2378 JUMPI PUSH0 DUP2 DUP2 MSTORE PUSH1 0x20 DUP2 KECCAK256 PUSH1 0x1F DUP6 ADD PUSH1 0x5 SHR DUP2 ADD PUSH1 0x20 DUP7 LT ISZERO PUSH2 0x2359 JUMPI POP DUP1 JUMPDEST PUSH1 0x1F DUP6 ADD PUSH1 0x5 SHR DUP3 ADD SWAP2 POP JUMPDEST DUP2 DUP2 LT ISZERO PUSH2 0xFA9 JUMPI DUP3 DUP2 SSTORE PUSH1 0x1 ADD PUSH2 0x2365 JUMP JUMPDEST POP POP POP JUMP JUMPDEST DUP2 MLOAD PUSH8 0xFFFFFFFFFFFFFFFF DUP2 GT ISZERO PUSH2 0x2397 JUMPI PUSH2 0x2397 PUSH2 0x1A5B JUMP JUMPDEST PUSH2 0x23AB DUP2 PUSH2 0x23A5 DUP5 SLOAD PUSH2 0x1EDE JUMP JUMPDEST DUP5 PUSH2 0x2333 JUMP JUMPDEST PUSH1 0x20 DUP1 PUSH1 0x1F DUP4 GT PUSH1 0x1 DUP2 EQ PUSH2 0x23DE JUMPI PUSH0 DUP5 ISZERO PUSH2 0x23C7 JUMPI POP DUP6 DUP4 ADD MLOAD JUMPDEST PUSH0 NOT PUSH1 0x3 DUP7 SWAP1 SHL SHR NOT AND PUSH1 0x1 DUP6 SWAP1 SHL OR DUP6 SSTORE PUSH2 0xFA9 JUMP JUMPDEST PUSH0 DUP6 DUP2 MSTORE PUSH1 0x20 DUP2 KECCAK256 PUSH1 0x1F NOT DUP7 AND SWAP2 JUMPDEST DUP3 DUP2 LT ISZERO PUSH2 0x240C JUMPI DUP9 DUP7 ADD MLOAD DUP3 SSTORE SWAP5 DUP5 ADD SWAP5 PUSH1 0x1 SWAP1 SWAP2 ADD SWAP1 DUP5 ADD PUSH2 0x23ED JUMP JUMPDEST POP DUP6 DUP3 LT ISZERO PUSH2 0x2429 JUMPI DUP8 DUP6 ADD MLOAD PUSH0 NOT PUSH1 0x3 DUP9 SWAP1 SHL PUSH1 0xF8 AND SHR NOT AND DUP2 SSTORE JUMPDEST POP POP POP POP POP PUSH1 0x1 SWAP1 DUP2 SHL ADD SWAP1 SSTORE POP JUMP JUMPDEST PUSH4 0x4E487B71 PUSH1 0xE0 SHL PUSH0 MSTORE PUSH1 0x11 PUSH1 0x4 MSTORE PUSH1 0x24 PUSH0 REVERT JUMPDEST DUP1 DUP3 MUL DUP2 ISZERO DUP3 DUP3 DIV DUP5 EQ OR PUSH2 0x2464 JUMPI PUSH2 0x2464 PUSH2 0x2439 JUMP JUMPDEST SWAP3 SWAP2 POP POP JUMP JUMPDEST PUSH0 DUP7 MLOAD PUSH2 0x247B DUP2 DUP5 PUSH1 0x20 DUP12 ADD PUSH2 0x185F JUMP JUMPDEST PUSH1 0x60 SWAP7 SWAP1 SWAP7 SHL PUSH12 0xFFFFFFFFFFFFFFFFFFFFFFFF NOT AND SWAP2 SWAP1 SWAP6 ADD SWAP1 DUP2 MSTORE PUSH1 0x14 DUP2 ADD SWAP4 SWAP1 SWAP4 MSTORE PUSH1 0x34 DUP4 ADD SWAP2 SWAP1 SWAP2 MSTORE PUSH1 0x54 DUP3 ADD MSTORE PUSH1 0x74 ADD SWAP3 SWAP2 POP POP JUMP JUMPDEST PUSH0 PUSH1 0x1 DUP3 ADD PUSH2 0x24C6 JUMPI PUSH2 0x24C6 PUSH2 0x2439 JUMP JUMPDEST POP PUSH1 0x1 ADD SWAP1 JUMP INVALID LOG2 PUSH5 0x6970667358 0x22 SLT KECCAK256 SWAP7 0x5C 0x27 0xE5 0xB7 SLOAD SWAP16 0xF PUSH23 0x88EAAFE74DE2E6B400B0BB4B8F45A3463C246DB29F9CEF PUSH5 0x736F6C6343 STOP ADDMOD EQ STOP CALLER "},"methodIdentifiers":{"cancelEscrow(bytes32)":"ee5e3b81","confirmPaymentAndCompleteEscrow(bytes32)":"88d7c091","createEscrow(string,address,uint256,uint256,string)":"fa7cb3cc","distributePayment(string)":"abeab219","emergencyWithdraw()":"db2e21bc","escrows(bytes32)":"2d83549c","getActiveEscrow(string)":"fa49c5c3","getEscrowInfo(bytes32)":"9585e82d","getEscrowStatus(bytes32)":"5356d0ca","hasActiveEscrow(string)":"afeb06ee","owner()":"8da5cb5b","paymentSplitterContract()":"29642f41","propertyEscrows(string)":"cea040c4","registerProperty(string,string,uint256,uint256,uint256,string,address[],uint256[],string[],address)":"998b0a2d","renounceOwnership()":"715018a6","sharesContract()":"7bc1ed63","titleDeedContract()":"3f53bd77","transferOwnership(address)":"f2fde38b","updateContracts(address,address,address)":"6dca4d44","updatePaymentReference(bytes32,string)":"bf1fbaee"}}}}}