{
  "_format": "hh3-artifact-1",
  "contractName": "PropertyShares",
  "sourceName": "contracts/PropertyShares.sol",
  "abi": [
    {
      "inputs": [],
      "stateMutability": "nonpayable",
      "type": "constructor"
    },
    {
      "inputs": [
        {
          "internalType": "address",
          "name": "spender",
          "type": "address"
        },
        {
          "internalType": "uint256",
          "name": "allowance",
          "type": "uint256"
        },
        {
          "internalType": "uint256",
          "name": "needed",
          "type": "uint256"
        }
      ],
      "name": "ERC20InsufficientAllowance",
      "type": "error"
    },
    {
      "inputs": [
        {
          "internalType": "address",
          "name": "sender",
          "type": "address"
        },
        {
          "internalType": "uint256",
          "name": "balance",
          "type": "uint256"
        },
        {
          "internalType": "uint256",
          "name": "needed",
          "type": "uint256"
        }
      ],
      "name": "ERC20InsufficientBalance",
      "type": "error"
    },
    {
      "inputs": [
        {
          "internalType": "address",
          "name": "approver",
          "type": "address"
        }
      ],
      "name": "ERC20InvalidApprover",
      "type": "error"
    },
    {
      "inputs": [
        {
          "internalType": "address",
          "name": "receiver",
          "type": "address"
        }
      ],
      "name": "ERC20InvalidReceiver",
      "type": "error"
    },
    {
      "inputs": [
        {
          "internalType": "address",
          "name": "sender",
          "type": "address"
        }
      ],
      "name": "ERC20InvalidSender",
      "type": "error"
    },
    {
      "inputs": [
        {
          "internalType": "address",
          "name": "spender",
          "type": "address"
        }
      ],
      "name": "ERC20InvalidSpender",
      "type": "error"
    },
    {
      "inputs": [
        {
          "internalType": "address",
          "name": "owner",
          "type": "address"
        }
      ],
      "name": "OwnableInvalidOwner",
      "type": "error"
    },
    {
      "inputs": [
        {
          "internalType": "address",
          "name": "account",
          "type": "address"
        }
      ],
      "name": "OwnableUnauthorizedAccount",
      "type": "error"
    },
    {
      "inputs": [],
      "name": "ReentrancyGuardReentrantCall",
      "type": "error"
    },
    {
      "anonymous": false,
      "inputs": [
        {
          "indexed": true,
          "internalType": "address",
          "name": "owner",
          "type": "address"
        },
        {
          "indexed": true,
          "internalType": "address",
          "name": "spender",
          "type": "address"
        },
        {
          "indexed": false,
          "internalType": "uint256",
          "name": "value",
          "type": "uint256"
        }
      ],
      "name": "Approval",
      "type": "event"
    },
    {
      "anonymous": false,
      "inputs": [
        {
          "indexed": true,
          "internalType": "address",
          "name": "previousOwner",
          "type": "address"
        },
        {
          "indexed": true,
          "internalType": "address",
          "name": "newOwner",
          "type": "address"
        }
      ],
      "name": "OwnershipTransferred",
      "type": "event"
    },
    {
      "anonymous": false,
      "inputs": [
        {
          "indexed": true,
          "internalType": "string",
          "name": "propertyId",
          "type": "string"
        },
        {
          "indexed": false,
          "internalType": "uint256",
          "name": "totalShares",
          "type": "uint256"
        },
        {
          "indexed": false,
          "internalType": "uint256",
          "name": "sharePrice",
          "type": "uint256"
        },
        {
          "indexed": true,
          "internalType": "address",
          "name": "propertyOwner",
          "type": "address"
        }
      ],
      "name": "PropertySharesCreated",
      "type": "event"
    },
    {
      "anonymous": false,
      "inputs": [
        {
          "indexed": true,
          "internalType": "string",
          "name": "propertyId",
          "type": "string"
        },
        {
          "indexed": true,
          "internalType": "address",
          "name": "buyer",
          "type": "address"
        },
        {
          "indexed": false,
          "internalType": "uint256",
          "name": "amount",
          "type": "uint256"
        },
        {
          "indexed": false,
          "internalType": "uint256",
          "name": "totalCost",
          "type": "uint256"
        }
      ],
      "name": "SharesPurchased",
      "type": "event"
    },
    {
      "anonymous": false,
      "inputs": [
        {
          "indexed": true,
          "internalType": "string",
          "name": "propertyId",
          "type": "string"
        },
        {
          "indexed": true,
          "internalType": "address",
          "name": "seller",
          "type": "address"
        },
        {
          "indexed": false,
          "internalType": "uint256",
          "name": "amount",
          "type": "uint256"
        },
        {
          "indexed": false,
          "internalType": "uint256",
          "name": "totalValue",
          "type": "uint256"
        }
      ],
      "name": "SharesSold",
      "type": "event"
    },
    {
      "anonymous": false,
      "inputs": [
        {
          "indexed": true,
          "internalType": "address",
          "name": "from",
          "type": "address"
        },
        {
          "indexed": true,
          "internalType": "address",
          "name": "to",
          "type": "address"
        },
        {
          "indexed": false,
          "internalType": "uint256",
          "name": "value",
          "type": "uint256"
        }
      ],
      "name": "Transfer",
      "type": "event"
    },
    {
      "inputs": [
        {
          "internalType": "address",
          "name": "owner",
          "type": "address"
        },
        {
          "internalType": "address",
          "name": "spender",
          "type": "address"
        }
      ],
      "name": "allowance",
      "outputs": [
        {
          "internalType": "uint256",
          "name": "",
          "type": "uint256"
        }
      ],
      "stateMutability": "view",
      "type": "function"
    },
    {
      "inputs": [
        {
          "internalType": "address",
          "name": "spender",
          "type": "address"
        },
        {
          "internalType": "uint256",
          "name": "value",
          "type": "uint256"
        }
      ],
      "name": "approve",
      "outputs": [
        {
          "internalType": "bool",
          "name": "",
          "type": "bool"
        }
      ],
      "stateMutability": "nonpayable",
      "type": "function"
    },
    {
      "inputs": [
        {
          "internalType": "address",
          "name": "account",
          "type": "address"
        }
      ],
      "name": "balanceOf",
      "outputs": [
        {
          "internalType": "uint256",
          "name": "",
          "type": "uint256"
        }
      ],
      "stateMutability": "view",
      "type": "function"
    },
    {
      "inputs": [
        {
          "internalType": "uint256",
          "name": "value",
          "type": "uint256"
        }
      ],
      "name": "burn",
      "outputs": [],
      "stateMutability": "nonpayable",
      "type": "function"
    },
    {
      "inputs": [
        {
          "internalType": "address",
          "name": "account",
          "type": "address"
        },
        {
          "internalType": "uint256",
          "name": "value",
          "type": "uint256"
        }
      ],
      "name": "burnFrom",
      "outputs": [],
      "stateMutability": "nonpayable",
      "type": "function"
    },
    {
      "inputs": [
        {
          "internalType": "string",
          "name": "propertyId",
          "type": "string"
        },
        {
          "internalType": "uint256",
          "name": "totalShares",
          "type": "uint256"
        },
        {
          "internalType": "uint256",
          "name": "sharePrice",
          "type": "uint256"
        },
        {
          "internalType": "address",
          "name": "propertyOwner",
          "type": "address"
        }
      ],
      "name": "createPropertyShares",
      "outputs": [],
      "stateMutability": "nonpayable",
      "type": "function"
    },
    {
      "inputs": [],
      "name": "decimals",
      "outputs": [
        {
          "internalType": "uint8",
          "name": "",
          "type": "uint8"
        }
      ],
      "stateMutability": "view",
      "type": "function"
    },
    {
      "inputs": [],
      "name": "emergencyWithdraw",
      "outputs": [],
      "stateMutability": "nonpayable",
      "type": "function"
    },
    {
      "inputs": [
        {
          "internalType": "string",
          "name": "propertyId",
          "type": "string"
        }
      ],
      "name": "getAvailableShares",
      "outputs": [
        {
          "internalType": "uint256",
          "name": "",
          "type": "uint256"
        }
      ],
      "stateMutability": "view",
      "type": "function"
    },
    {
      "inputs": [
        {
          "internalType": "string",
          "name": "propertyId",
          "type": "string"
        }
      ],
      "name": "getPropertyShares",
      "outputs": [
        {
          "components": [
            {
              "internalType": "string",
              "name": "propertyId",
              "type": "string"
            },
            {
              "internalType": "uint256",
              "name": "totalShares",
              "type": "uint256"
            },
            {
              "internalType": "uint256",
              "name": "sharePrice",
              "type": "uint256"
            },
            {
              "internalType": "bool",
              "name": "isActive",
              "type": "bool"
            },
            {
              "internalType": "address",
              "name": "propertyOwner",
              "type": "address"
            },
            {
              "internalType": "uint256",
              "name": "createdAt",
              "type": "uint256"
            }
          ],
          "internalType": "struct PropertyShares.PropertyShare",
          "name": "",
          "type": "tuple"
        }
      ],
      "stateMutability": "view",
      "type": "function"
    },
    {
      "inputs": [],
      "name": "name",
      "outputs": [
        {
          "internalType": "string",
          "name": "",
          "type": "string"
        }
      ],
      "stateMutability": "view",
      "type": "function"
    },
    {
      "inputs": [],
      "name": "owner",
      "outputs": [
        {
          "internalType": "address",
          "name": "",
          "type": "address"
        }
      ],
      "stateMutability": "view",
      "type": "function"
    },
    {
      "inputs": [
        {
          "internalType": "string",
          "name": "",
          "type": "string"
        }
      ],
      "name": "propertyCirculatingSupply",
      "outputs": [
        {
          "internalType": "uint256",
          "name": "",
          "type": "uint256"
        }
      ],
      "stateMutability": "view",
      "type": "function"
    },
    {
      "inputs": [
        {
          "internalType": "string",
          "name": "",
          "type": "string"
        }
      ],
      "name": "propertyShares",
      "outputs": [
        {
          "internalType": "string",
          "name": "propertyId",
          "type": "string"
        },
        {
          "internalType": "uint256",
          "name": "totalShares",
          "type": "uint256"
        },
        {
          "internalType": "uint256",
          "name": "sharePrice",
          "type": "uint256"
        },
        {
          "internalType": "bool",
          "name": "isActive",
          "type": "bool"
        },
        {
          "internalType": "address",
          "name": "propertyOwner",
          "type": "address"
        },
        {
          "internalType": "uint256",
          "name": "createdAt",
          "type": "uint256"
        }
      ],
      "stateMutability": "view",
      "type": "function"
    },
    {
      "inputs": [
        {
          "internalType": "string",
          "name": "propertyId",
          "type": "string"
        }
      ],
      "name": "propertySharesExist",
      "outputs": [
        {
          "internalType": "bool",
          "name": "",
          "type": "bool"
        }
      ],
      "stateMutability": "view",
      "type": "function"
    },
    {
      "inputs": [
        {
          "internalType": "string",
          "name": "",
          "type": "string"
        }
      ],
      "name": "propertyTotalSupply",
      "outputs": [
        {
          "internalType": "uint256",
          "name": "",
          "type": "uint256"
        }
      ],
      "stateMutability": "view",
      "type": "function"
    },
    {
      "inputs": [
        {
          "internalType": "string",
          "name": "propertyId",
          "type": "string"
        },
        {
          "internalType": "uint256",
          "name": "amount",
          "type": "uint256"
        }
      ],
      "name": "purchaseShares",
      "outputs": [],
      "stateMutability": "payable",
      "type": "function"
    },
    {
      "inputs": [],
      "name": "renounceOwnership",
      "outputs": [],
      "stateMutability": "nonpayable",
      "type": "function"
    },
    {
      "inputs": [
        {
          "internalType": "string",
          "name": "propertyId",
          "type": "string"
        },
        {
          "internalType": "uint256",
          "name": "amount",
          "type": "uint256"
        }
      ],
      "name": "sellShares",
      "outputs": [],
      "stateMutability": "nonpayable",
      "type": "function"
    },
    {
      "inputs": [],
      "name": "symbol",
      "outputs": [
        {
          "internalType": "string",
          "name": "",
          "type": "string"
        }
      ],
      "stateMutability": "view",
      "type": "function"
    },
    {
      "inputs": [],
      "name": "totalSupply",
      "outputs": [
        {
          "internalType": "uint256",
          "name": "",
          "type": "uint256"
        }
      ],
      "stateMutability": "view",
      "type": "function"
    },
    {
      "inputs": [
        {
          "internalType": "address",
          "name": "to",
          "type": "address"
        },
        {
          "internalType": "uint256",
          "name": "value",
          "type": "uint256"
        }
      ],
      "name": "transfer",
      "outputs": [
        {
          "internalType": "bool",
          "name": "",
          "type": "bool"
        }
      ],
      "stateMutability": "nonpayable",
      "type": "function"
    },
    {
      "inputs": [
        {
          "internalType": "address",
          "name": "from",
          "type": "address"
        },
        {
          "internalType": "address",
          "name": "to",
          "type": "address"
        },
        {
          "internalType": "uint256",
          "name": "value",
          "type": "uint256"
        }
      ],
      "name": "transferFrom",
      "outputs": [
        {
          "internalType": "bool",
          "name": "",
          "type": "bool"
        }
      ],
      "stateMutability": "nonpayable",
      "type": "function"
    },
    {
      "inputs": [
        {
          "internalType": "address",
          "name": "newOwner",
          "type": "address"
        }
      ],
      "name": "transferOwnership",
      "outputs": [],
      "stateMutability": "nonpayable",
      "type": "function"
    },
    {
      "inputs": [
        {
          "internalType": "string",
          "name": "propertyId",
          "type": "string"
        },
        {
          "internalType": "uint256",
          "name": "newPrice",
          "type": "uint256"
        }
      ],
      "name": "updateSharePrice",
      "outputs": [],
      "stateMutability": "nonpayable",
      "type": "function"
    },
    {
      "inputs": [
        {
          "internalType": "string",
          "name": "propertyId",
          "type": "string"
        },
        {
          "internalType": "bool",
          "name": "isActive",
          "type": "bool"
        }
      ],
      "name": "updateShareStatus",
      "outputs": [],
      "stateMutability": "nonpayable",
      "type": "function"
    },
    {
      "inputs": [
        {
          "internalType": "string",
          "name": "propertyId",
          "type": "string"
        }
      ],
      "name": "withdrawPropertyFunds",
      "outputs": [],
      "stateMutability": "nonpayable",
      "type": "function"
    }
  ],
  "bytecode": "0x608060405234801562000010575f80fd5b50336040518060400160405280600f81526020016e50726f70657274792053686172657360881b815250604051806040016040528060038152602001620a0a6960eb1b8152508160039081620000679190620001af565b506004620000768282620001af565b5050506001600160a01b038116620000a757604051631e4fbdf760e01b81525f600482015260240160405180910390fd5b620000b281620000be565b50600160065562000277565b600580546001600160a01b038381166001600160a01b0319831681179093556040519116919082907f8be0079c531659141344cd1fd0a4f28419497f9722a3daafe3b4186f6b6457e0905f90a35050565b634e487b7160e01b5f52604160045260245ffd5b600181811c908216806200013857607f821691505b6020821081036200015757634e487b7160e01b5f52602260045260245ffd5b50919050565b601f821115620001aa575f81815260208120601f850160051c81016020861015620001855750805b601f850160051c820191505b81811015620001a65782815560010162000191565b5050505b505050565b81516001600160401b03811115620001cb57620001cb6200010f565b620001e381620001dc845462000123565b846200015d565b602080601f83116001811462000219575f8415620002015750858301515b5f19600386901b1c1916600185901b178555620001a6565b5f85815260208120601f198616915b82811015620002495788860151825594840194600190910190840162000228565b50858210156200026757878501515f19600388901b60f8161c191681555b5050505050600190811b01905550565b6120b480620002855f395ff3fe608060405260043610610195575f3560e01c806379cc6790116100e7578063caff564c11610087578063ec475ea111610062578063ec475ea1146104d1578063ed253b42146104f0578063ee39d6271461051c578063f2fde38b1461053b575f80fd5b8063caff564c1461045a578063db2e21bc14610479578063dd62ed3e1461048d575f80fd5b806395d89b41116100c257806395d89b41146103d1578063a7493b20146103e5578063a9059cbb14610404578063c0086f3714610423575f80fd5b806379cc67901461036c5780638c5e56f01461038b5780638da5cb5b146103aa575f80fd5b8063313ce5671161015257806342966c681161012d57806342966c68146102e65780634e491d751461030557806370a0823114610324578063715018a614610358575f80fd5b8063313ce5671461028757806337974f5e146102a2578063399096c5146102b5575f80fd5b806306fdde0314610199578063095ea7b3146101c357806318160ddd146101f257806318455ecc146102105780631a8736be1461024757806323b872dd14610268575b5f80fd5b3480156101a4575f80fd5b506101ad61055a565b6040516101ba9190611af9565b60405180910390f35b3480156101ce575f80fd5b506101e26101dd366004611b26565b6105ea565b60405190151581526020016101ba565b3480156101fd575f80fd5b506002545b6040519081526020016101ba565b34801561021b575f80fd5b5061020261022a366004611beb565b805160208183018101805160088252928201919093012091525481565b348015610252575f80fd5b50610266610261366004611beb565b610603565b005b348015610273575f80fd5b506101e2610282366004611c25565b6107e7565b348015610292575f80fd5b50604051601281526020016101ba565b6102666102b0366004611c5e565b61080a565b3480156102c0575f80fd5b506102d46102cf366004611beb565b610b85565b6040516101ba96959493929190611ca0565b3480156102f1575f80fd5b50610266610300366004611ce4565b610c59565b348015610310575f80fd5b5061026661031f366004611cfb565b610c66565b34801561032f575f80fd5b5061020261033e366004611d4e565b6001600160a01b03165f9081526020819052604090205490565b348015610363575f80fd5b50610266610ce6565b348015610377575f80fd5b50610266610386366004611b26565b610cf9565b348015610396575f80fd5b506102666103a5366004611c5e565b610d0e565b3480156103b5575f80fd5b506005546040516001600160a01b0390911681526020016101ba565b3480156103dc575f80fd5b506101ad610d9d565b3480156103f0575f80fd5b506102666103ff366004611d67565b610dac565b34801561040f575f80fd5b506101e261041e366004611b26565b61106a565b34801561042e575f80fd5b5061020261043d366004611beb565b805160208183018101805160098252928201919093012091525481565b348015610465575f80fd5b50610266610474366004611c5e565b611077565b348015610484575f80fd5b5061026661135b565b348015610498575f80fd5b506102026104a7366004611dc4565b6001600160a01b039182165f90815260016020908152604080832093909416825291909152205490565b3480156104dc575f80fd5b506102026104eb366004611beb565b6113df565b3480156104fb575f80fd5b5061050f61050a366004611beb565b611528565b6040516101ba9190611df5565b348015610527575f80fd5b506101e2610536366004611beb565b611667565b348015610546575f80fd5b50610266610555366004611d4e565b611693565b60606003805461056990611e58565b80601f016020809104026020016040519081016040528092919081815260200182805461059590611e58565b80156105e05780601f106105b7576101008083540402835291602001916105e0565b820191905f5260205f20905b8154815290600101906020018083116105c357829003601f168201915b5050505050905090565b5f336105f78185856116cd565b60019150505b92915050565b5f6007826040516106149190611e90565b90815260200160405180910390206040518060c00160405290815f8201805461063c90611e58565b80601f016020809104026020016040519081016040528092919081815260200182805461066890611e58565b80156106b35780601f1061068a576101008083540402835291602001916106b3565b820191905f5260205f20905b81548152906001019060200180831161069657829003601f168201915b50505091835250506001820154602082015260028201546040820152600382015460ff8116151560608301526001600160a01b03610100909104811660808084019190915260049093015460a090920191909152908201519192501633146107625760405162461bcd60e51b815260206004820181905260248201527f4f6e6c792070726f7065727479206f776e65722063616e20776974686472617760448201526064015b60405180910390fd5b47806107a75760405162461bcd60e51b81526020600482015260146024820152734e6f2066756e647320746f20776974686472617760601b6044820152606401610759565b81608001516001600160a01b03166108fc8290811502906040515f60405180830381858888f193505050501580156107e1573d5f803e3d5ffd5b50505050565b5f336107f48582856116df565b6107ff858585611755565b506001949350505050565b6108126117b2565b5f6007836040516108239190611e90565b90815260200160405180910390206040518060c00160405290815f8201805461084b90611e58565b80601f016020809104026020016040519081016040528092919081815260200182805461087790611e58565b80156108c25780601f10610899576101008083540402835291602001916108c2565b820191905f5260205f20905b8154815290600101906020018083116108a557829003601f168201915b5050509183525050600182015460208083019190915260028301546040830152600383015460ff81161515606084015261010090046001600160a01b0316608083015260049092015460a0909101528101519091506109335760405162461bcd60e51b815260040161075990611eab565b80606001516109845760405162461bcd60e51b815260206004820152601e60248201527f50726f70657274792073686172657320617265206e6f742061637469766500006044820152606401610759565b5f82116109d35760405162461bcd60e51b815260206004820152601d60248201527f416d6f756e74206d7573742062652067726561746572207468616e20300000006044820152606401610759565b8060200151826009856040516109e99190611e90565b908152602001604051809103902054610a029190611ef6565b1115610a505760405162461bcd60e51b815260206004820152601b60248201527f4e6f7420656e6f7567682073686172657320617661696c61626c6500000000006044820152606401610759565b5f816040015183610a619190611f09565b905080341015610aaa5760405162461bcd60e51b8152602060048201526014602482015273125b9cdd59999a58da595b9d081c185e5b595b9d60621b6044820152606401610759565b82600985604051610abb9190611e90565b90815260200160405180910390205f828254610ad79190611ef6565b90915550610ae7905033846117dc565b80341115610b2457336108fc610afd8334611f20565b6040518115909202915f818181858888f19350505050158015610b22573d5f803e3d5ffd5b505b6040513390610b34908690611e90565b6040805191829003822086835260208301859052917fdcc0e69a3aaadfcabffec783081d8af9a657482a61f5daae114153ba2073f68a91015b60405180910390a35050610b816001600655565b5050565b8051602081830181018051600782529282019190930120915280548190610bab90611e58565b80601f0160208091040260200160405190810160405280929190818152602001828054610bd790611e58565b8015610c225780601f10610bf957610100808354040283529160200191610c22565b820191905f5260205f20905b815481529060010190602001808311610c0557829003601f168201915b505050506001830154600284015460038501546004909501549394919390925060ff82169161010090046001600160a01b03169086565b610c633382611810565b50565b610c6e611844565b5f600783604051610c7f9190611e90565b90815260200160405180910390206001015411610cae5760405162461bcd60e51b815260040161075990611eab565b80600783604051610cbf9190611e90565b908152604051908190036020019020600301805491151560ff199092169190911790555050565b610cee611844565b610cf75f611871565b565b610d048233836116df565b610b818282611810565b610d16611844565b5f600783604051610d279190611e90565b90815260200160405180910390206001015411610d565760405162461bcd60e51b815260040161075990611eab565b5f8111610d755760405162461bcd60e51b815260040161075990611f33565b80600783604051610d869190611e90565b908152604051908190036020019020600201555050565b60606004805461056990611e58565b610db4611844565b5f8311610e0f5760405162461bcd60e51b815260206004820152602360248201527f546f74616c20736861726573206d75737420626520677265617465722074686160448201526206e20360ec1b6064820152608401610759565b5f8211610e2e5760405162461bcd60e51b815260040161075990611f33565b6001600160a01b038116610e7d5760405162461bcd60e51b815260206004820152601660248201527524b73b30b634b210383937b832b93a3c9037bbb732b960511b6044820152606401610759565b600784604051610e8d9190611e90565b9081526020016040518091039020600101545f14610efc5760405162461bcd60e51b815260206004820152602660248201527f53686172657320616c726561647920657869737420666f7220746869732070726044820152656f706572747960d01b6064820152608401610759565b6040518060c00160405280858152602001848152602001838152602001600115158152602001826001600160a01b0316815260200142815250600785604051610f459190611e90565b90815260405190819003602001902081518190610f629082611fc2565b50602082015160018201556040808301516002830155606083015160038301805460808601516001600160a01b031661010002610100600160a81b0319931515939093166001600160a81b03199091161791909117905560a090920151600490910155518390600890610fd6908790611e90565b9081526020016040518091039020819055505f600985604051610ff99190611e90565b908152602001604051809103902081905550806001600160a01b0316846040516110239190611e90565b6040805191829003822086835260208301869052917fecad6030d606fa7e0b0ed35a53d585acd8ebd83e1462cff015a302dfa6a614e591015b60405180910390a350505050565b5f336105f7818585611755565b61107f6117b2565b5f6007836040516110909190611e90565b90815260200160405180910390206040518060c00160405290815f820180546110b890611e58565b80601f01602080910402602001604051908101604052809291908181526020018280546110e490611e58565b801561112f5780601f106111065761010080835404028352916020019161112f565b820191905f5260205f20905b81548152906001019060200180831161111257829003601f168201915b5050509183525050600182015460208083019190915260028301546040830152600383015460ff81161515606084015261010090046001600160a01b0316608083015260049092015460a0909101528101519091506111a05760405162461bcd60e51b815260040161075990611eab565b80606001516111f15760405162461bcd60e51b815260206004820152601e60248201527f50726f70657274792073686172657320617265206e6f742061637469766500006044820152606401610759565b5f82116112405760405162461bcd60e51b815260206004820152601d60248201527f416d6f756e74206d7573742062652067726561746572207468616e20300000006044820152606401610759565b335f908152602081905260409020548211156112945760405162461bcd60e51b8152602060048201526013602482015272496e73756666696369656e742073686172657360681b6044820152606401610759565b5f8160400151836112a59190611f09565b90506112b13384611810565b826009856040516112c29190611e90565b90815260200160405180910390205f8282546112de9190611f20565b9091555050604051339082156108fc029083905f818181858888f1935050505015801561130d573d5f803e3d5ffd5b50604051339061131e908690611e90565b6040805191829003822086835260208301859052917fa6392eda74f15c642ab63f0d53fe639fe6a33794b98159784458b6c2db7b9c0e9101610b6d565b611363611844565b47806113a85760405162461bcd60e51b81526020600482015260146024820152734e6f2066756e647320746f20776974686472617760601b6044820152606401610759565b6005546040516001600160a01b039091169082156108fc029083905f818181858888f19350505050158015610b81573d5f803e3d5ffd5b5f806007836040516113f19190611e90565b90815260200160405180910390206040518060c00160405290815f8201805461141990611e58565b80601f016020809104026020016040519081016040528092919081815260200182805461144590611e58565b80156114905780601f1061146757610100808354040283529160200191611490565b820191905f5260205f20905b81548152906001019060200180831161147357829003601f168201915b5050509183525050600182015460208083019190915260028301546040830152600383015460ff81161515606084015261010090046001600160a01b0316608083015260049092015460a0909101528101519091505f036114f357505f92915050565b6009836040516115039190611e90565b90815260200160405180910390205481602001516115219190611f20565b9392505050565b6115676040518060c00160405280606081526020015f81526020015f81526020015f151581526020015f6001600160a01b031681526020015f81525090565b6007826040516115779190611e90565b90815260200160405180910390206040518060c00160405290815f8201805461159f90611e58565b80601f01602080910402602001604051908101604052809291908181526020018280546115cb90611e58565b80156116165780601f106115ed57610100808354040283529160200191611616565b820191905f5260205f20905b8154815290600101906020018083116115f957829003601f168201915b50505091835250506001820154602082015260028201546040820152600382015460ff81161515606083015261010090046001600160a01b0316608082015260049091015460a09091015292915050565b5f806007836040516116799190611e90565b908152602001604051809103902060010154119050919050565b61169b611844565b6001600160a01b0381166116c457604051631e4fbdf760e01b81525f6004820152602401610759565b610c6381611871565b6116da83838360016118c2565b505050565b6001600160a01b038381165f908152600160209081526040808320938616835292905220545f198110156107e1578181101561174757604051637dc7a0d960e11b81526001600160a01b03841660048201526024810182905260448101839052606401610759565b6107e184848484035f6118c2565b6001600160a01b03831661177e57604051634b637e8f60e11b81525f6004820152602401610759565b6001600160a01b0382166117a75760405163ec442f0560e01b81525f6004820152602401610759565b6116da838383611986565b6002600654036117d557604051633ee5aeb560e01b815260040160405180910390fd5b6002600655565b6001600160a01b0382166118055760405163ec442f0560e01b81525f6004820152602401610759565b610b815f8383611986565b6001600160a01b03821661183957604051634b637e8f60e11b81525f6004820152602401610759565b610b81825f83611986565b6005546001600160a01b03163314610cf75760405163118cdaa760e01b8152336004820152602401610759565b600580546001600160a01b038381166001600160a01b0319831681179093556040519116919082907f8be0079c531659141344cd1fd0a4f28419497f9722a3daafe3b4186f6b6457e0905f90a35050565b6001600160a01b0384166118eb5760405163e602df0560e01b81525f6004820152602401610759565b6001600160a01b03831661191457604051634a1406b160e11b81525f6004820152602401610759565b6001600160a01b038085165f90815260016020908152604080832093871683529290522082905580156107e157826001600160a01b0316846001600160a01b03167f8c5be1e5ebec7d5bd14f71427d1e84f3dd0314c0f7b2291e5b200ac8c7c3b9258460405161105c91815260200190565b6001600160a01b0383166119b0578060025f8282546119a59190611ef6565b90915550611a209050565b6001600160a01b0383165f9081526020819052604090205481811015611a025760405163391434e360e21b81526001600160a01b03851660048201526024810182905260448101839052606401610759565b6001600160a01b0384165f9081526020819052604090209082900390555b6001600160a01b038216611a3c57600280548290039055611a5a565b6001600160a01b0382165f9081526020819052604090208054820190555b816001600160a01b0316836001600160a01b03167fddf252ad1be2c89b69c2b068fc378daa952ba7f163c4a11628f55a4df523b3ef83604051611a9f91815260200190565b60405180910390a3505050565b5f5b83811015611ac6578181015183820152602001611aae565b50505f910152565b5f8151808452611ae5816020860160208601611aac565b601f01601f19169290920160200192915050565b602081525f6115216020830184611ace565b80356001600160a01b0381168114611b21575f80fd5b919050565b5f8060408385031215611b37575f80fd5b611b4083611b0b565b946020939093013593505050565b634e487b7160e01b5f52604160045260245ffd5b5f82601f830112611b71575f80fd5b813567ffffffffffffffff80821115611b8c57611b8c611b4e565b604051601f8301601f19908116603f01168101908282118183101715611bb457611bb4611b4e565b81604052838152866020858801011115611bcc575f80fd5b836020870160208301375f602085830101528094505050505092915050565b5f60208284031215611bfb575f80fd5b813567ffffffffffffffff811115611c11575f80fd5b611c1d84828501611b62565b949350505050565b5f805f60608486031215611c37575f80fd5b611c4084611b0b565b9250611c4e60208501611b0b565b9150604084013590509250925092565b5f8060408385031215611c6f575f80fd5b823567ffffffffffffffff811115611c85575f80fd5b611c9185828601611b62565b95602094909401359450505050565b60c081525f611cb260c0830189611ace565b602083019790975250604081019490945291151560608401526001600160a01b0316608083015260a090910152919050565b5f60208284031215611cf4575f80fd5b5035919050565b5f8060408385031215611d0c575f80fd5b823567ffffffffffffffff811115611d22575f80fd5b611d2e85828601611b62565b92505060208301358015158114611d43575f80fd5b809150509250929050565b5f60208284031215611d5e575f80fd5b61152182611b0b565b5f805f8060808587031215611d7a575f80fd5b843567ffffffffffffffff811115611d90575f80fd5b611d9c87828801611b62565b9450506020850135925060408501359150611db960608601611b0b565b905092959194509250565b5f8060408385031215611dd5575f80fd5b611dde83611b0b565b9150611dec60208401611b0b565b90509250929050565b602081525f825160c06020840152611e1060e0840182611ace565b9050602084015160408401526040840151606084015260608401511515608084015260018060a01b0360808501511660a084015260a084015160c08401528091505092915050565b600181811c90821680611e6c57607f821691505b602082108103611e8a57634e487b7160e01b5f52602260045260245ffd5b50919050565b5f8251611ea1818460208701611aac565b9190910192915050565b6020808252601c908201527f50726f70657274792073686172657320646f206e6f7420657869737400000000604082015260600190565b634e487b7160e01b5f52601160045260245ffd5b808201808211156105fd576105fd611ee2565b80820281158282048414176105fd576105fd611ee2565b818103818111156105fd576105fd611ee2565b60208082526022908201527f5368617265207072696365206d7573742062652067726561746572207468616e604082015261020360f41b606082015260800190565b601f8211156116da575f81815260208120601f850160051c81016020861015611f9b5750805b601f850160051c820191505b81811015611fba57828155600101611fa7565b505050505050565b815167ffffffffffffffff811115611fdc57611fdc611b4e565b611ff081611fea8454611e58565b84611f75565b602080601f831160018114612023575f841561200c5750858301515b5f19600386901b1c1916600185901b178555611fba565b5f85815260208120601f198616915b8281101561205157888601518255948401946001909101908401612032565b508582101561206e57878501515f19600388901b60f8161c191681555b5050505050600190811b0190555056fea2646970667358221220fa1334826726315d0d24f1be7470bf98b5d70aaf358d94d50311e663f178f0be64736f6c63430008140033",
  "linkReferences": {},
  "deployedLinkReferences": {},
  "immutableReferences": {},
  "inputSourceName": "project/contracts/PropertyShares.sol",
  "buildInfoId": "solc-0_8_20-d3031a412e71589ccce37641d366361478700e0f"
}