{
  "_format": "hh3-artifact-1",
  "contractName": "PropertyTitleDeed",
  "sourceName": "contracts/PropertyTitleDeed.sol",
  "abi": [
    {
      "inputs": [],
      "stateMutability": "nonpayable",
      "type": "constructor"
    },
    {
      "inputs": [
        {
          "internalType": "address",
          "name": "sender",
          "type": "address"
        },
        {
          "internalType": "uint256",
          "name": "tokenId",
          "type": "uint256"
        },
        {
          "internalType": "address",
          "name": "owner",
          "type": "address"
        }
      ],
      "name": "ERC721IncorrectOwner",
      "type": "error"
    },
    {
      "inputs": [
        {
          "internalType": "address",
          "name": "operator",
          "type": "address"
        },
        {
          "internalType": "uint256",
          "name": "tokenId",
          "type": "uint256"
        }
      ],
      "name": "ERC721InsufficientApproval",
      "type": "error"
    },
    {
      "inputs": [
        {
          "internalType": "address",
          "name": "approver",
          "type": "address"
        }
      ],
      "name": "ERC721InvalidApprover",
      "type": "error"
    },
    {
      "inputs": [
        {
          "internalType": "address",
          "name": "operator",
          "type": "address"
        }
      ],
      "name": "ERC721InvalidOperator",
      "type": "error"
    },
    {
      "inputs": [
        {
          "internalType": "address",
          "name": "owner",
          "type": "address"
        }
      ],
      "name": "ERC721InvalidOwner",
      "type": "error"
    },
    {
      "inputs": [
        {
          "internalType": "address",
          "name": "receiver",
          "type": "address"
        }
      ],
      "name": "ERC721InvalidReceiver",
      "type": "error"
    },
    {
      "inputs": [
        {
          "internalType": "address",
          "name": "sender",
          "type": "address"
        }
      ],
      "name": "ERC721InvalidSender",
      "type": "error"
    },
    {
      "inputs": [
        {
          "internalType": "uint256",
          "name": "tokenId",
          "type": "uint256"
        }
      ],
      "name": "ERC721NonexistentToken",
      "type": "error"
    },
    {
      "inputs": [
        {
          "internalType": "address",
          "name": "owner",
          "type": "address"
        }
      ],
      "name": "OwnableInvalidOwner",
      "type": "error"
    },
    {
      "inputs": [
        {
          "internalType": "address",
          "name": "account",
          "type": "address"
        }
      ],
      "name": "OwnableUnauthorizedAccount",
      "type": "error"
    },
    {
      "anonymous": false,
      "inputs": [
        {
          "indexed": true,
          "internalType": "address",
          "name": "owner",
          "type": "address"
        },
        {
          "indexed": true,
          "internalType": "address",
          "name": "approved",
          "type": "address"
        },
        {
          "indexed": true,
          "internalType": "uint256",
          "name": "tokenId",
          "type": "uint256"
        }
      ],
      "name": "Approval",
      "type": "event"
    },
    {
      "anonymous": false,
      "inputs": [
        {
          "indexed": true,
          "internalType": "address",
          "name": "owner",
          "type": "address"
        },
        {
          "indexed": true,
          "internalType": "address",
          "name": "operator",
          "type": "address"
        },
        {
          "indexed": false,
          "internalType": "bool",
          "name": "approved",
          "type": "bool"
        }
      ],
      "name": "ApprovalForAll",
      "type": "event"
    },
    {
      "anonymous": false,
      "inputs": [
        {
          "indexed": false,
          "internalType": "uint256",
          "name": "_fromTokenId",
          "type": "uint256"
        },
        {
          "indexed": false,
          "internalType": "uint256",
          "name": "_toTokenId",
          "type": "uint256"
        }
      ],
      "name": "BatchMetadataUpdate",
      "type": "event"
    },
    {
      "anonymous": false,
      "inputs": [
        {
          "indexed": false,
          "internalType": "uint256",
          "name": "_tokenId",
          "type": "uint256"
        }
      ],
      "name": "MetadataUpdate",
      "type": "event"
    },
    {
      "anonymous": false,
      "inputs": [
        {
          "indexed": true,
          "internalType": "address",
          "name": "previousOwner",
          "type": "address"
        },
        {
          "indexed": true,
          "internalType": "address",
          "name": "newOwner",
          "type": "address"
        }
      ],
      "name": "OwnershipTransferred",
      "type": "event"
    },
    {
      "anonymous": false,
      "inputs": [
        {
          "indexed": true,
          "internalType": "uint256",
          "name": "tokenId",
          "type": "uint256"
        },
        {
          "indexed": true,
          "internalType": "string",
          "name": "propertyId",
          "type": "string"
        },
        {
          "indexed": true,
          "internalType": "address",
          "name": "owner",
          "type": "address"
        },
        {
          "indexed": false,
          "internalType": "string",
          "name": "location",
          "type": "string"
        },
        {
          "indexed": false,
          "internalType": "uint256",
          "name": "totalValue",
          "type": "uint256"
        },
        {
          "indexed": false,
          "internalType": "uint256",
          "name": "totalShares",
          "type": "uint256"
        }
      ],
      "name": "PropertyRegistered",
      "type": "event"
    },
    {
      "anonymous": false,
      "inputs": [
        {
          "indexed": true,
          "internalType": "uint256",
          "name": "tokenId",
          "type": "uint256"
        },
        {
          "indexed": true,
          "internalType": "address",
          "name": "from",
          "type": "address"
        },
        {
          "indexed": true,
          "internalType": "address",
          "name": "to",
          "type": "address"
        },
        {
          "indexed": false,
          "internalType": "string",
          "name": "propertyId",
          "type": "string"
        }
      ],
      "name": "PropertyTransferred",
      "type": "event"
    },
    {
      "anonymous": false,
      "inputs": [
        {
          "indexed": true,
          "internalType": "address",
          "name": "from",
          "type": "address"
        },
        {
          "indexed": true,
          "internalType": "address",
          "name": "to",
          "type": "address"
        },
        {
          "indexed": true,
          "internalType": "uint256",
          "name": "tokenId",
          "type": "uint256"
        }
      ],
      "name": "Transfer",
      "type": "event"
    },
    {
      "inputs": [
        {
          "internalType": "address",
          "name": "to",
          "type": "address"
        },
        {
          "internalType": "uint256",
          "name": "tokenId",
          "type": "uint256"
        }
      ],
      "name": "approve",
      "outputs": [],
      "stateMutability": "nonpayable",
      "type": "function"
    },
    {
      "inputs": [
        {
          "internalType": "address",
          "name": "owner",
          "type": "address"
        }
      ],
      "name": "balanceOf",
      "outputs": [
        {
          "internalType": "uint256",
          "name": "",
          "type": "uint256"
        }
      ],
      "stateMutability": "view",
      "type": "function"
    },
    {
      "inputs": [
        {
          "internalType": "uint256",
          "name": "tokenId",
          "type": "uint256"
        }
      ],
      "name": "getApproved",
      "outputs": [
        {
          "internalType": "address",
          "name": "",
          "type": "address"
        }
      ],
      "stateMutability": "view",
      "type": "function"
    },
    {
      "inputs": [
        {
          "internalType": "uint256",
          "name": "tokenId",
          "type": "uint256"
        }
      ],
      "name": "getPropertyInfo",
      "outputs": [
        {
          "components": [
            {
              "internalType": "string",
              "name": "propertyId",
              "type": "string"
            },
            {
              "internalType": "string",
              "name": "location",
              "type": "string"
            },
            {
              "internalType": "uint256",
              "name": "totalValue",
              "type": "uint256"
            },
            {
              "internalType": "uint256",
              "name": "totalShares",
              "type": "uint256"
            },
            {
              "internalType": "address",
              "name": "currentOwner",
              "type": "address"
            },
            {
              "internalType": "bool",
              "name": "isActive",
              "type": "bool"
            },
            {
              "internalType": "uint256",
              "name": "createdAt",
              "type": "uint256"
            }
          ],
          "internalType": "struct PropertyTitleDeed.PropertyInfo",
          "name": "",
          "type": "tuple"
        }
      ],
      "stateMutability": "view",
      "type": "function"
    },
    {
      "inputs": [
        {
          "internalType": "string",
          "name": "propertyId",
          "type": "string"
        }
      ],
      "name": "getPropertyInfoById",
      "outputs": [
        {
          "components": [
            {
              "internalType": "string",
              "name": "propertyId",
              "type": "string"
            },
            {
              "internalType": "string",
              "name": "location",
              "type": "string"
            },
            {
              "internalType": "uint256",
              "name": "totalValue",
              "type": "uint256"
            },
            {
              "internalType": "uint256",
              "name": "totalShares",
              "type": "uint256"
            },
            {
              "internalType": "address",
              "name": "currentOwner",
              "type": "address"
            },
            {
              "internalType": "bool",
              "name": "isActive",
              "type": "bool"
            },
            {
              "internalType": "uint256",
              "name": "createdAt",
              "type": "uint256"
            }
          ],
          "internalType": "struct PropertyTitleDeed.PropertyInfo",
          "name": "",
          "type": "tuple"
        }
      ],
      "stateMutability": "view",
      "type": "function"
    },
    {
      "inputs": [],
      "name": "getTotalProperties",
      "outputs": [
        {
          "internalType": "uint256",
          "name": "",
          "type": "uint256"
        }
      ],
      "stateMutability": "view",
      "type": "function"
    },
    {
      "inputs": [
        {
          "internalType": "address",
          "name": "owner",
          "type": "address"
        },
        {
          "internalType": "address",
          "name": "operator",
          "type": "address"
        }
      ],
      "name": "isApprovedForAll",
      "outputs": [
        {
          "internalType": "bool",
          "name": "",
          "type": "bool"
        }
      ],
      "stateMutability": "view",
      "type": "function"
    },
    {
      "inputs": [],
      "name": "name",
      "outputs": [
        {
          "internalType": "string",
          "name": "",
          "type": "string"
        }
      ],
      "stateMutability": "view",
      "type": "function"
    },
    {
      "inputs": [],
      "name": "owner",
      "outputs": [
        {
          "internalType": "address",
          "name": "",
          "type": "address"
        }
      ],
      "stateMutability": "view",
      "type": "function"
    },
    {
      "inputs": [
        {
          "internalType": "uint256",
          "name": "tokenId",
          "type": "uint256"
        }
      ],
      "name": "ownerOf",
      "outputs": [
        {
          "internalType": "address",
          "name": "",
          "type": "address"
        }
      ],
      "stateMutability": "view",
      "type": "function"
    },
    {
      "inputs": [
        {
          "internalType": "uint256",
          "name": "",
          "type": "uint256"
        }
      ],
      "name": "properties",
      "outputs": [
        {
          "internalType": "string",
          "name": "propertyId",
          "type": "string"
        },
        {
          "internalType": "string",
          "name": "location",
          "type": "string"
        },
        {
          "internalType": "uint256",
          "name": "totalValue",
          "type": "uint256"
        },
        {
          "internalType": "uint256",
          "name": "totalShares",
          "type": "uint256"
        },
        {
          "internalType": "address",
          "name": "currentOwner",
          "type": "address"
        },
        {
          "internalType": "bool",
          "name": "isActive",
          "type": "bool"
        },
        {
          "internalType": "uint256",
          "name": "createdAt",
          "type": "uint256"
        }
      ],
      "stateMutability": "view",
      "type": "function"
    },
    {
      "inputs": [
        {
          "internalType": "string",
          "name": "propertyId",
          "type": "string"
        }
      ],
      "name": "propertyExists",
      "outputs": [
        {
          "internalType": "bool",
          "name": "",
          "type": "bool"
        }
      ],
      "stateMutability": "view",
      "type": "function"
    },
    {
      "inputs": [
        {
          "internalType": "string",
          "name": "",
          "type": "string"
        }
      ],
      "name": "propertyIdToTokenId",
      "outputs": [
        {
          "internalType": "uint256",
          "name": "",
          "type": "uint256"
        }
      ],
      "stateMutability": "view",
      "type": "function"
    },
    {
      "inputs": [
        {
          "internalType": "string",
          "name": "propertyId",
          "type": "string"
        },
        {
          "internalType": "string",
          "name": "location",
          "type": "string"
        },
        {
          "internalType": "uint256",
          "name": "totalValue",
          "type": "uint256"
        },
        {
          "internalType": "uint256",
          "name": "totalShares",
          "type": "uint256"
        },
        {
          "internalType": "string",
          "name": "metadataURI",
          "type": "string"
        },
        {
          "internalType": "address",
          "name": "initialOwner",
          "type": "address"
        }
      ],
      "name": "registerProperty",
      "outputs": [
        {
          "internalType": "uint256",
          "name": "",
          "type": "uint256"
        }
      ],
      "stateMutability": "nonpayable",
      "type": "function"
    },
    {
      "inputs": [],
      "name": "renounceOwnership",
      "outputs": [],
      "stateMutability": "nonpayable",
      "type": "function"
    },
    {
      "inputs": [
        {
          "internalType": "address",
          "name": "from",
          "type": "address"
        },
        {
          "internalType": "address",
          "name": "to",
          "type": "address"
        },
        {
          "internalType": "uint256",
          "name": "tokenId",
          "type": "uint256"
        }
      ],
      "name": "safeTransferFrom",
      "outputs": [],
      "stateMutability": "nonpayable",
      "type": "function"
    },
    {
      "inputs": [
        {
          "internalType": "address",
          "name": "from",
          "type": "address"
        },
        {
          "internalType": "address",
          "name": "to",
          "type": "address"
        },
        {
          "internalType": "uint256",
          "name": "tokenId",
          "type": "uint256"
        },
        {
          "internalType": "bytes",
          "name": "data",
          "type": "bytes"
        }
      ],
      "name": "safeTransferFrom",
      "outputs": [],
      "stateMutability": "nonpayable",
      "type": "function"
    },
    {
      "inputs": [
        {
          "internalType": "address",
          "name": "operator",
          "type": "address"
        },
        {
          "internalType": "bool",
          "name": "approved",
          "type": "bool"
        }
      ],
      "name": "setApprovalForAll",
      "outputs": [],
      "stateMutability": "nonpayable",
      "type": "function"
    },
    {
      "inputs": [
        {
          "internalType": "bytes4",
          "name": "interfaceId",
          "type": "bytes4"
        }
      ],
      "name": "supportsInterface",
      "outputs": [
        {
          "internalType": "bool",
          "name": "",
          "type": "bool"
        }
      ],
      "stateMutability": "view",
      "type": "function"
    },
    {
      "inputs": [],
      "name": "symbol",
      "outputs": [
        {
          "internalType": "string",
          "name": "",
          "type": "string"
        }
      ],
      "stateMutability": "view",
      "type": "function"
    },
    {
      "inputs": [
        {
          "internalType": "uint256",
          "name": "tokenId",
          "type": "uint256"
        }
      ],
      "name": "tokenURI",
      "outputs": [
        {
          "internalType": "string",
          "name": "",
          "type": "string"
        }
      ],
      "stateMutability": "view",
      "type": "function"
    },
    {
      "inputs": [
        {
          "internalType": "address",
          "name": "from",
          "type": "address"
        },
        {
          "internalType": "address",
          "name": "to",
          "type": "address"
        },
        {
          "internalType": "uint256",
          "name": "tokenId",
          "type": "uint256"
        }
      ],
      "name": "transferFrom",
      "outputs": [],
      "stateMutability": "nonpayable",
      "type": "function"
    },
    {
      "inputs": [
        {
          "internalType": "address",
          "name": "newOwner",
          "type": "address"
        }
      ],
      "name": "transferOwnership",
      "outputs": [],
      "stateMutability": "nonpayable",
      "type": "function"
    },
    {
      "inputs": [
        {
          "internalType": "uint256",
          "name": "tokenId",
          "type": "uint256"
        },
        {
          "internalType": "bool",
          "name": "isActive",
          "type": "bool"
        }
      ],
      "name": "updatePropertyStatus",
      "outputs": [],
      "stateMutability": "nonpayable",
      "type": "function"
    }
  ],
  "bytecode": "0x608060405234801562000010575f80fd5b50336040518060400160405280601381526020017f50726f7065727479205469746c652044656564000000000000000000000000008152506040518060400160405280600381526020016214151160ea1b815250815f9081620000749190620001b7565b506001620000838282620001b7565b5050506001600160a01b038116620000b457604051631e4fbdf760e01b81525f600482015260240160405180910390fd5b620000bf81620000c6565b506200027f565b600780546001600160a01b038381166001600160a01b0319831681179093556040519116919082907f8be0079c531659141344cd1fd0a4f28419497f9722a3daafe3b4186f6b6457e0905f90a35050565b634e487b7160e01b5f52604160045260245ffd5b600181811c908216806200014057607f821691505b6020821081036200015f57634e487b7160e01b5f52602260045260245ffd5b50919050565b601f821115620001b2575f81815260208120601f850160051c810160208610156200018d5750805b601f850160051c820191505b81811015620001ae5782815560010162000199565b5050505b505050565b81516001600160401b03811115620001d357620001d362000117565b620001eb81620001e484546200012b565b8462000165565b602080601f83116001811462000221575f8415620002095750858301515b5f19600386901b1c1916600185901b178555620001ae565b5f85815260208120601f198616915b82811015620002515788860151825594840194600190910190840162000230565b50858210156200026f57878501515f19600388901b60f8161c191681555b5050505050600190811b01905550565b6120b5806200028d5f395ff3fe608060405234801561000f575f80fd5b5060043610610153575f3560e01c806384f7a18e116100bf578063b88d4fde11610079578063b88d4fde146102ea578063c87b56dd146102fd578063e985e9c514610310578063ef70d75314610323578063f2fde38b14610336578063f7b1080814610349575f80fd5b806384f7a18e1461026d5780638da5cb5b1461028057806395d89b41146102915780639c0c891f146102995780639f01ee1e146102ac578063a22cb465146102d7575f80fd5b8063287283f111610110578063287283f1146101f957806340f0a0551461020c57806342842e0e1461022c5780636352211e1461023f57806370a0823114610252578063715018a614610265575f80fd5b806301ffc9a71461015757806306fdde031461017f578063081812fc14610194578063095ea7b3146101bf57806317aaf5ed146101d457806323b872dd146101e6575b5f80fd5b61016a61016536600461195c565b61036f565b60405190151581526020015b60405180910390f35b61018761037f565b60405161017691906119c4565b6101a76101a23660046119d6565b61040e565b6040516001600160a01b039091168152602001610176565b6101d26101cd366004611a08565b610435565b005b6008545b604051908152602001610176565b6101d26101f4366004611a30565b610444565b61016a610207366004611b0e565b6104d2565b61021f61021a3660046119d6565b6104fb565b6040516101769190611b40565b6101d261023a366004611a30565b6106e1565b6101a761024d3660046119d6565b610700565b6101d8610260366004611bc2565b61070a565b6101d261074f565b61021f61027b366004611b0e565b610762565b6007546001600160a01b03166101a7565b610187610952565b6101d26102a7366004611bea565b610961565b6101d86102ba366004611b0e565b8051602081830181018051600a8252928201919093012091525481565b6101d26102e5366004611c14565b6109f3565b6101d26102f8366004611c3c565b6109fe565b61018761030b3660046119d6565b610a16565b61016a61031e366004611cb3565b610a21565b6101d8610331366004611cdb565b610a4e565b6101d2610344366004611bc2565b610d45565b61035c6103573660046119d6565b610d82565b6040516101769796959493929190611d7f565b5f61037982610ed8565b92915050565b60605f805461038d90611dd9565b80601f01602080910402602001604051908101604052809291908181526020018280546103b990611dd9565b80156104045780601f106103db57610100808354040283529160200191610404565b820191905f5260205f20905b8154815290600101906020018083116103e757829003601f168201915b5050505050905090565b5f61041882610efc565b505f828152600460205260409020546001600160a01b0316610379565b610440828233610f34565b5050565b6001600160a01b03821661047257604051633250574960e11b81525f60048201526024015b60405180910390fd5b5f61047e838333610f41565b9050836001600160a01b0316816001600160a01b0316146104cc576040516364283d7b60e01b81526001600160a01b0380861660048301526024820184905282166044820152606401610469565b50505050565b5f80600a836040516104e49190611e11565b908152602001604051809103902054119050919050565b610503611904565b5f828152600260205260409020546001600160a01b03166105605760405162461bcd60e51b8152602060048201526017602482015276141c9bdc195c9d1e48191bd95cc81b9bdd08195e1a5cdd604a1b6044820152606401610469565b5f8281526009602052604090819020815160e0810190925280548290829061058790611dd9565b80601f01602080910402602001604051908101604052809291908181526020018280546105b390611dd9565b80156105fe5780601f106105d5576101008083540402835291602001916105fe565b820191905f5260205f20905b8154815290600101906020018083116105e157829003601f168201915b5050505050815260200160018201805461061790611dd9565b80601f016020809104026020016040519081016040528092919081815260200182805461064390611dd9565b801561068e5780601f106106655761010080835404028352916020019161068e565b820191905f5260205f20905b81548152906001019060200180831161067157829003601f168201915b5050509183525050600282015460208201526003820154604082015260048201546001600160a01b0381166060830152600160a01b900460ff161515608082015260059091015460a09091015292915050565b6106fb83838360405180602001604052805f8152506109fe565b505050565b5f61037982610efc565b5f6001600160a01b038216610734576040516322718ad960e21b81525f6004820152602401610469565b506001600160a01b03165f9081526003602052604090205490565b610757610ffb565b6107605f611028565b565b61076a611904565b5f600a8360405161077b9190611e11565b90815260200160405180910390205490505f81116107d05760405162461bcd60e51b8152602060048201526012602482015271141c9bdc195c9d1e481b9bdd08199bdd5b9960721b6044820152606401610469565b5f8181526009602052604090819020815160e081019092528054829082906107f790611dd9565b80601f016020809104026020016040519081016040528092919081815260200182805461082390611dd9565b801561086e5780601f106108455761010080835404028352916020019161086e565b820191905f5260205f20905b81548152906001019060200180831161085157829003601f168201915b5050505050815260200160018201805461088790611dd9565b80601f01602080910402602001604051908101604052809291908181526020018280546108b390611dd9565b80156108fe5780601f106108d5576101008083540402835291602001916108fe565b820191905f5260205f20905b8154815290600101906020018083116108e157829003601f168201915b5050509183525050600282015460208201526003820154604082015260048201546001600160a01b0381166060830152600160a01b900460ff161515608082015260059091015460a0909101529392505050565b60606001805461038d90611dd9565b610969610ffb565b5f828152600260205260409020546001600160a01b03166109c65760405162461bcd60e51b8152602060048201526017602482015276141c9bdc195c9d1e48191bd95cc81b9bdd08195e1a5cdd604a1b6044820152606401610469565b5f918252600960205260409091206004018054911515600160a01b0260ff60a01b19909216919091179055565b610440338383611079565b610a09848484610444565b6104cc3385858585611117565b60606103798261123f565b6001600160a01b039182165f90815260056020908152604080832093909416825291909152205460ff1690565b5f610a57610ffb565b600a87604051610a679190611e11565b9081526020016040518091039020545f14610ac45760405162461bcd60e51b815260206004820152601b60248201527f50726f706572747920616c7265616479207265676973746572656400000000006044820152606401610469565b5f8511610b215760405162461bcd60e51b815260206004820152602560248201527f50726f70657274792076616c7565206d75737420626520677265617465722074604482015264068616e20360dc1b6064820152608401610469565b5f8411610b7c5760405162461bcd60e51b815260206004820152602360248201527f546f74616c20736861726573206d75737420626520677265617465722074686160448201526206e20360ec1b6064820152608401610469565b6001600160a01b038216610bca5760405162461bcd60e51b8152602060048201526015602482015274496e76616c6964206f776e6572206164647265737360581b6044820152606401610469565b600880549081905f610bdb83611e2c565b90915550506040805160e08101825289815260208082018a9052818301899052606082018890526001600160a01b0386166080830152600160a08301524260c08301525f84815260099091529190912081518190610c399082611e95565b5060208201516001820190610c4e9082611e95565b50604082810151600283015560608301516003830155608083015160048301805460a08601511515600160a01b026001600160a81b03199091166001600160a01b039093169290921791909117905560c090920151600590910155518190600a90610cba908b90611e11565b90815260405190819003602001902055610cd48382611342565b610cde818561135b565b826001600160a01b031688604051610cf69190611e11565b6040518091039020827f81ef6e71fb3de68f0ddd2be34abbe15f83a585895abf698e2768def2acd4fce58a8a8a604051610d3293929190611f51565b60405180910390a4979650505050505050565b610d4d610ffb565b6001600160a01b038116610d7657604051631e4fbdf760e01b81525f6004820152602401610469565b610d7f81611028565b50565b60096020525f9081526040902080548190610d9c90611dd9565b80601f0160208091040260200160405190810160405280929190818152602001828054610dc890611dd9565b8015610e135780601f10610dea57610100808354040283529160200191610e13565b820191905f5260205f20905b815481529060010190602001808311610df657829003601f168201915b505050505090806001018054610e2890611dd9565b80601f0160208091040260200160405190810160405280929190818152602001828054610e5490611dd9565b8015610e9f5780601f10610e7657610100808354040283529160200191610e9f565b820191905f5260205f20905b815481529060010190602001808311610e8257829003601f168201915b50505050600283015460038401546004850154600590950154939491939092506001600160a01b03821691600160a01b900460ff169087565b5f6001600160e01b03198216632483248360e11b14806103795750610379826113aa565b5f818152600260205260408120546001600160a01b03168061037957604051637e27328960e01b815260048101849052602401610469565b6106fb83838360016113f9565b5f80610f4e8585856114fd565b90506001600160a01b03851615610ff3575f84815260096020526040902060040180546001600160a01b0319166001600160a01b0387811691909117909155811615610ff357846001600160a01b0316816001600160a01b0316857f25808af84f1bb35a2fdec79e3aab4c0825cce634a3902764b791cdc5bbaddaf160095f8981526020019081526020015f205f01604051610fea9190611f75565b60405180910390a45b949350505050565b6007546001600160a01b031633146107605760405163118cdaa760e01b8152336004820152602401610469565b600780546001600160a01b038381166001600160a01b0319831681179093556040519116919082907f8be0079c531659141344cd1fd0a4f28419497f9722a3daafe3b4186f6b6457e0905f90a35050565b6001600160a01b0382166110ab57604051630b61174360e31b81526001600160a01b0383166004820152602401610469565b6001600160a01b038381165f81815260056020908152604080832094871680845294825291829020805460ff191686151590811790915591519182527f17307eab39ab6107e8899845ad3d59bd9653f200f220920489ca2b5937696c31910160405180910390a3505050565b6001600160a01b0383163b1561123857604051630a85bd0160e11b81526001600160a01b0384169063150b7a0290611159908890889087908790600401611ffa565b6020604051808303815f875af1925050508015611193575060408051601f3d908101601f1916820190925261119091810190612036565b60015b6111fa573d8080156111c0576040519150601f19603f3d011682016040523d82523d5f602084013e6111c5565b606091505b5080515f036111f257604051633250574960e11b81526001600160a01b0385166004820152602401610469565b805160208201fd5b6001600160e01b03198116630a85bd0160e11b1461123657604051633250574960e11b81526001600160a01b0385166004820152602401610469565b505b5050505050565b606061124a82610efc565b505f828152600660205260408120805461126390611dd9565b80601f016020809104026020016040519081016040528092919081815260200182805461128f90611dd9565b80156112da5780601f106112b1576101008083540402835291602001916112da565b820191905f5260205f20905b8154815290600101906020018083116112bd57829003601f168201915b505050505090505f6112f660408051602081019091525f815290565b905080515f03611307575092915050565b815115611339578082604051602001611321929190612051565b60405160208183030381529060405292505050919050565b610ff3846115ef565b610440828260405180602001604052805f815250611660565b5f8281526006602052604090206113728282611e95565b506040518281527ff8e1a15aba9398e019f0b49df1a4fde98ee17ae345cb5f6b5e2c27f5033e8ce79060200160405180910390a15050565b5f6001600160e01b031982166380ac58cd60e01b14806113da57506001600160e01b03198216635b5e139f60e01b145b8061037957506301ffc9a760e01b6001600160e01b0319831614610379565b808061140d57506001600160a01b03821615155b156114ce575f61141c84610efc565b90506001600160a01b038316158015906114485750826001600160a01b0316816001600160a01b031614155b801561145b57506114598184610a21565b155b156114845760405163a9fbf51f60e01b81526001600160a01b0384166004820152602401610469565b81156114cc5783856001600160a01b0316826001600160a01b03167f8c5be1e5ebec7d5bd14f71427d1e84f3dd0314c0f7b2291e5b200ac8c7c3b92560405160405180910390a45b505b50505f90815260046020526040902080546001600160a01b0319166001600160a01b0392909216919091179055565b5f828152600260205260408120546001600160a01b039081169083161561152957611529818486611677565b6001600160a01b03811615611563576115445f855f806113f9565b6001600160a01b0381165f90815260036020526040902080545f190190555b6001600160a01b03851615611591576001600160a01b0385165f908152600360205260409020805460010190555b5f8481526002602052604080822080546001600160a01b0319166001600160a01b0389811691821790925591518793918516917fddf252ad1be2c89b69c2b068fc378daa952ba7f163c4a11628f55a4df523b3ef91a4949350505050565b60606115fa82610efc565b505f61161060408051602081019091525f815290565b90505f81511161162e5760405180602001604052805f815250611659565b80611638846116db565b604051602001611649929190612051565b6040516020818303038152906040525b9392505050565b61166a838361176b565b6106fb335f858585611117565b6116828383836117cc565b6106fb576001600160a01b0383166116b057604051637e27328960e01b815260048101829052602401610469565b60405163177e802f60e01b81526001600160a01b038316600482015260248101829052604401610469565b60605f6116e78361182d565b60010190505f8167ffffffffffffffff81111561170657611706611a69565b6040519080825280601f01601f191660200182016040528015611730576020820181803683370190505b5090508181016020015b5f19016f181899199a1a9b1b9c1cb0b131b232b360811b600a86061a8153600a850494508461173a57509392505050565b6001600160a01b03821661179457604051633250574960e11b81525f6004820152602401610469565b5f6117a083835f610f41565b90506001600160a01b038116156106fb576040516339e3563760e11b81525f6004820152602401610469565b5f6001600160a01b03831615801590610ff35750826001600160a01b0316846001600160a01b0316148061180557506118058484610a21565b80610ff35750505f908152600460205260409020546001600160a01b03908116911614919050565b5f8072184f03e93ff9f4daa797ed6e38ed64bf6a1f0160401b831061186b5772184f03e93ff9f4daa797ed6e38ed64bf6a1f0160401b830492506040015b6d04ee2d6d415b85acef81000000008310611897576d04ee2d6d415b85acef8100000000830492506020015b662386f26fc1000083106118b557662386f26fc10000830492506010015b6305f5e10083106118cd576305f5e100830492506008015b61271083106118e157612710830492506004015b606483106118f3576064830492506002015b600a83106103795760010192915050565b6040518060e0016040528060608152602001606081526020015f81526020015f81526020015f6001600160a01b031681526020015f151581526020015f81525090565b6001600160e01b031981168114610d7f575f80fd5b5f6020828403121561196c575f80fd5b813561165981611947565b5f5b83811015611991578181015183820152602001611979565b50505f910152565b5f81518084526119b0816020860160208601611977565b601f01601f19169290920160200192915050565b602081525f6116596020830184611999565b5f602082840312156119e6575f80fd5b5035919050565b80356001600160a01b0381168114611a03575f80fd5b919050565b5f8060408385031215611a19575f80fd5b611a22836119ed565b946020939093013593505050565b5f805f60608486031215611a42575f80fd5b611a4b846119ed565b9250611a59602085016119ed565b9150604084013590509250925092565b634e487b7160e01b5f52604160045260245ffd5b5f67ffffffffffffffff80841115611a9757611a97611a69565b604051601f8501601f19908116603f01168101908282118183101715611abf57611abf611a69565b81604052809350858152868686011115611ad7575f80fd5b858560208301375f602087830101525050509392505050565b5f82601f830112611aff575f80fd5b61165983833560208501611a7d565b5f60208284031215611b1e575f80fd5b813567ffffffffffffffff811115611b34575f80fd5b610ff384828501611af0565b602081525f825160e06020840152611b5c610100840182611999565b90506020840151601f19848303016040850152611b798282611999565b915050604084015160608401526060840151608084015260018060a01b0360808501511660a084015260a0840151151560c084015260c084015160e08401528091505092915050565b5f60208284031215611bd2575f80fd5b611659826119ed565b80358015158114611a03575f80fd5b5f8060408385031215611bfb575f80fd5b82359150611c0b60208401611bdb565b90509250929050565b5f8060408385031215611c25575f80fd5b611c2e836119ed565b9150611c0b60208401611bdb565b5f805f8060808587031215611c4f575f80fd5b611c58856119ed565b9350611c66602086016119ed565b925060408501359150606085013567ffffffffffffffff811115611c88575f80fd5b8501601f81018713611c98575f80fd5b611ca787823560208401611a7d565b91505092959194509250565b5f8060408385031215611cc4575f80fd5b611ccd836119ed565b9150611c0b602084016119ed565b5f805f805f8060c08789031215611cf0575f80fd5b863567ffffffffffffffff80821115611d07575f80fd5b611d138a838b01611af0565b97506020890135915080821115611d28575f80fd5b611d348a838b01611af0565b965060408901359550606089013594506080890135915080821115611d57575f80fd5b50611d6489828a01611af0565b925050611d7360a088016119ed565b90509295509295509295565b60e081525f611d9160e083018a611999565b8281036020840152611da3818a611999565b6040840198909852505060608101949094526001600160a01b03929092166080840152151560a083015260c09091015292915050565b600181811c90821680611ded57607f821691505b602082108103611e0b57634e487b7160e01b5f52602260045260245ffd5b50919050565b5f8251611e22818460208701611977565b9190910192915050565b5f60018201611e4957634e487b7160e01b5f52601160045260245ffd5b5060010190565b601f8211156106fb575f81815260208120601f850160051c81016020861015611e765750805b601f850160051c820191505b8181101561123657828155600101611e82565b815167ffffffffffffffff811115611eaf57611eaf611a69565b611ec381611ebd8454611dd9565b84611e50565b602080601f831160018114611ef6575f8415611edf5750858301515b5f19600386901b1c1916600185901b178555611236565b5f85815260208120601f198616915b82811015611f2457888601518255948401946001909101908401611f05565b5085821015611f4157878501515f19600388901b60f8161c191681555b5050505050600190811b01905550565b606081525f611f636060830186611999565b60208301949094525060400152919050565b5f60208083525f8454611f8781611dd9565b8084870152604060018084165f8114611fa75760018114611fc157611fec565b60ff1985168984015283151560051b890183019550611fec565b895f52865f205f5b85811015611fe45781548b8201860152908301908801611fc9565b8a0184019650505b509398975050505050505050565b6001600160a01b03858116825284166020820152604081018390526080606082018190525f9061202c90830184611999565b9695505050505050565b5f60208284031215612046575f80fd5b815161165981611947565b5f8351612062818460208801611977565b835190830190612076818360208801611977565b0194935050505056fea2646970667358221220ed81f3f313b73d930980356da57e57a8f68d51872d72b3c225d493d45983833264736f6c63430008140033",
  "linkReferences": {},
  "deployedLinkReferences": {},
  "immutableReferences": {},
  "inputSourceName": "project/contracts/PropertyTitleDeed.sol",
  "buildInfoId": "solc-0_8_20-d3031a412e71589ccce37641d366361478700e0f"
}